:020000040800F2
:100000000010002061450008B5210008B721000854
:1000100000000000000000000000000000000000E0
:10002000000000000000000000000000B9210008EE
:100030000000000000000000BB210008BD210008F6
:10004000B145000800000000B1450008B1450008B6
:10005000B1450008B1450008B1450008AD240008CD
:1000600000000000B1450008B1450008B145000896
:10007000B1450008B1450008B14500080000000086
:10008000B14500080000000000000000B145000874
:1000900000000000B1450008B1450008B145000866
:1000A00000000000B145000800000000C921000860
:1000B0000000000000000000000000000000000040
:1000C00010B5064C2378002B07D1054B002B02D02E
:1000D000044800E000BF0123237010BD440300204A
:1000E0000000000024480008044B10B5002B03D08A
:1000F0000349044800E000BF10BDC04600000000F6
:100100004803002024480008002243088B4274D38F
:1001100003098B425FD3030A8B4244D3030B8B4208
:1001200028D3030C8B420DD3FF22090212BA030C11
:100130008B4202D31212090265D0030B8B4219D3F2
:1001400000E0090AC30B8B4201D3CB03C01A524112
:10015000830B8B4201D38B03C01A5241430B8B425A
:1001600001D34B03C01A5241030B8B4201D30B0343
:10017000C01A5241C30A8B4201D3CB02C01A52416A
:10018000830A8B4201D38B02C01A5241430A8B422D
:1001900001D34B02C01A5241030A8B4201D30B0216
:1001A000C01A5241CDD2C3098B4201D3CB01C01A30
:1001B000524183098B4201D38B01C01A524143093A
:1001C0008B4201D34B01C01A524103098B4201D328
:1001D0000B01C01A5241C3088B4201D3CB00C01A95
:1001E000524183088B4201D38B00C01A524143080D
:1001F0008B4201D34B00C01A5241411A00D2014632
:10020000524110467047FFE701B5002000F006F8A4
:1002100002BDC0460029F7D076E770477047C04658
:100220009E2110B5C905041C01F0BEFC002803D1B5
:10023000201C00F0AFFD10BD9E21201CC90500F060
:10024000E5FB00F0A7FD80231B069C466044F2E717
:10025000F8B54746CE4643025B0A4400C20F9C46AF
:100260004800DD004B02240E5B0A000E80B5984664
:1002700026009146C90FDB00271A8A4229D0002F99
:1002800015DD00284AD1002B00D095E0ED08FF2CA9
:1002900000D188E06B025B0AE6B25B02F605580A01
:1002A0003043D20710430CBC90469946F8BD002F4E
:1002B00000D087E0601CC0B2012800DCB6E0EE1A76
:1002C000720100D5C5E0002E3DD10022002600239A
:1002D000E3E7002F00DC96E000285DD0FF2C60D023
:1002E0008022D20413431B2F00DDECE02022D21B1E
:1002F00018009340F8405A1E93410343ED186B01D8
:100300007BD50134FF2C00D1B7E0012207262A401B
:100310006B089A4D1D4015432E4029E0FF2CB5D0A7
:100320008022D20413431B2F00DDB2E02022D21B17
:1003300019009340F9405A1E93410B43ED1A6B018B
:100340005BD5AD01AE09300001F038FC05388640C0
:10035000844265DC041B330020200134E340041B8D
:10036000A640751EAE41334307261D0000241E40E3
:1003700001224B461A40002E04D00F232B40042BA1
:1003800000D004356B0100D480E70134E6B2FF2CC5
:100390002FD1FF26002380E7002B52D1FF2C00D065
:1003A00074E70A00ED08002DF3D08023DB032B4314
:1003B0005B025B0AFF2670E7013F002FBED0FF2CD7
:1003C000B1D163E7002C47D0FF2869D08024E40432
:1003D0007A4225431B2A00DDC5E02C002026D440AC
:1003E000B21A95406A1E954125435D1B040089465B
:1003F000A5E7AB015B0A50E7002401224B461A40F7
:100400006B07BAD142E7002F3BD10134E0B201289B
:100410004ADDFF2CBDD00726ED186D082E40A7E75A
:100420000723574D241A35401E40A1E7002C1BD14D
:10043000002D6ED1002B00D19AE00A001D003C0077
:1004400024E7013F002F00D158E7FF2C00D04AE7F6
:10045000A7E75E1B894676E7002D1CD10A00FF281E
:100460001FD004001D0011E7002D5DD1002B17D116
:1004700080230022DB03FF260FE70A00FF2600236C
:100480000BE7002C21D1002D66D1FF28E9D11D00FA
:1004900087E7012352E77A1CA7D0FA43FF2899D1B6
:1004A0000A001D00FF24F1E6002E21D1002D4FD0BF
:1004B000002B4CD0ED186B019ED5314B07362E40EA
:1004C00001241D4054E7012318E7FF28DFD08024D2
:1004D000E4047F4225431B2F4DDC2026F61B2C0015
:1004E000B540FC406A1E95412543ED18040006E71F
:1004F000002DCCD0002B00D153E780216046C903EA
:10050000084203D04046084200D11D00012111409D
:1005100047E7002B00D1B9E6EA1A500125D5072696
:100520005D1B2E40894623E7FF24002B00D1ADE65A
:1005300080226046D203104204D04046104201D1CE
:100540001D00894601224B46FF241A409EE62B00DF
:10055000DD080A0000249DE67A1CC6D0FF43FF2870
:10056000B9D11D001DE701253FE7151E00D044E766
:100570000022002391E60125B7E7C046FFFFFF7D7B
:10058000FFFFFFFBF8B557464E464546DE464402A0
:10059000E0B546008846640A360EC70F002E63D0C9
:1005A000FF2E24D08023E400DB041C430023994663
:1005B0009B467F3E434642465D02D20F5B006D0A7A
:1005C0001B0E9046924665D0FF2B55D0802200210D
:1005D000ED00D2047F3B1543F61A43464A467B4062
:1005E0000F2A00D98DE06D48920082589746002C62
:1005F00054D108239946063BFF269B46DAE700259F
:10060000534602291BD0032900D1BFE0012928D07D
:1006100030007F30002820DD6A0704D00F222A40F6
:10062000042A00D004352A0103D530005C4A80300A
:100630001540FE2803DCAC01640AC2B201E0FF22CF
:1006400000246402D205600ADB07104318433CBC57
:1006500090469946A246AB46F8BD0122101A1B28C7
:100660007CDD00220024ECE7002C1DD104239946F8
:10067000033B00269B469DE7FF3E002D20D1022133
:1006800043464A467B400A430F2AD8D84548920041
:1006900082589746002D19D10121F1E70C23994684
:1006A000093BFF269B4685E7200001F087FA762666
:1006B000431F9C4000237642361A99469B4679E7B1
:1006C0004A4603231A439146032186E7280001F096
:1006D00075FA431F36189D40763600217DE7802449
:1006E0000023E403FF22ACE700258023DB031C4248
:1006F00028D01D4226D12B435C02640A4346FF22C8
:100700009FE762016C01A24224D21B210025013E19
:10071000012710006D005200002801DB944201D82F
:10072000121B3D4301390029F3D11400621E94418C
:1007300025436DE7BA46594625005346022900D0A5
:1007400061E77CE78023DB031C436402640A3B000F
:10075000FF2276E7121B1A210125D9E79E362A00CF
:10076000B5402C00C240651EAC411443620704D062
:100770000F222240042A00D00434620103D4A401D1
:10078000640A00225DE7012200245AE78024E40382
:100790002C436402640AFF2253E7C0465C48000809
:1007A000FFFFFFF79C480008F0B54E465746454608
:1007B000DE46E0B543025B0A450083B00F1C994654
:1007C0002D0EC60F002D57D0FF2D24D08020DB002A
:1007D000C0041843002381469A469B467F3D7C0215
:1007E0007A00FB0F640A120E984623D0FF2A4BD0E2
:1007F000E30080240020E4047F3A1C43AD186B1C06
:1008000047460193534677403A000F2B48D87D491D
:100810009B00CB589F46002B00D085E008339A46BA
:10082000063B9B467C027A00FB0FFF25640A120EF2
:100830009846DBD1002C00D090E0524601231A43A9
:1008400092460120DBE74C4658461700022824D088
:10085000032800D1CFE00022002301284DD1580207
:10086000D205400AFF071043384303B03CBC904612
:100870009946A246AB46F0BD002B5BD104239A46B5
:10088000033B00259B46AAE7FF35002C60D152466A
:1008900002231A4392460220B1E7FF220023DEE73B
:1008A0004B461B0C9C464B462604360C18046146EE
:1008B0003300220C6446000C43434E4350435443E0
:1008C00080191A0C1218964203D9802149028C46CD
:1008D00064441B041B0C1004C01883015E1EB3414A
:1008E000800E1843130C1B199B0103431C002301AA
:1008F00079D5012362081C401443019A7F32002AF3
:100900004DDD630704D00F232340042B00D00434B3
:10091000230103D53C4B019A1C408032FE2ABCDCEB
:10092000A3015B0AD2B29AE70C239A46093BFF2542
:100930009B4654E7180001F041F94A46431F7625CB
:100940009A4000236D4291462D1A9A469B4646E7EF
:10095000524603231A439246032050E7200001F039
:100960002DF9431F2D1A9C40763D002047E7802338
:100970000027DB03FF2272E7424666E74C4632005F
:10098000584662E780234A46DB031A4222D01C42C3
:1009900020D123435B025B0A4746FF225FE7012326
:1009A0009A1A1B2A21DC23000199D3409E318C40E6
:1009B0001A0023005C1EA34113435A0704D00F22E0
:1009C0001A40042A00D004335A0111D49B015B0A57
:1009D000002244E780234A46DB0313435B025B0AA1
:1009E0003700FF223BE7019587E70022002336E727
:1009F0000122002333E78023DB0323435B025B0AEE
:100A0000FF222CE7DC480008FFFFFFF7F8B5474658
:100A1000CE464400C20F80B547024802400A8446D1
:100A2000664648007F0A240EF60025009046FB002B
:100A3000000EC90FB146FF2800D185E001267140A4
:100A4000261A914257D0002E43DD002800D07FE0C7
:100A50004946002900D1AAE0013E002E00D0F7E06F
:100A60005B1A5A0100D48BE09B019C09200001F025
:100A7000A5F805388440854200DDD3E0451B2300FE
:100A800020200135EB40451BAC40621E94412343BE
:100A9000072400251C40012241460A40002C04D0B6
:100AA0000F211940042900D00433590100D480E0FB
:100AB0000135ECB2FF2D00D0A3E0FF2400235B0240
:100AC000E405580AD207204310430CBC90469946CF
:100AD000F8BD002E74D1601CC0B2012800DCA7E074
:100AE0004A469C1A620100D5B6E0002CBED1002215
:100AF00000240023E3E7002E00DC85E0002846D038
:100B0000FF2C49D080224846D2041043814601225E
:100B10001B2E09DC20204C46801B84404A462000C6
:100B2000F240441EA04102439B185A0128D50135CA
:100B3000FF2D00D1A8E00122072494491A405B0848
:100B40000B4013431C40A6E7002E00D078E775E762
:100B5000FF2C54D080224946D204114389460122F9
:100B60001B2E09DC20214846891B88404A4601008B
:100B7000F240481E81410A439B1A5A0100D573E78F
:100B8000012241460A40590700D089E711E0484652
:100B9000002858D1FF2C0CD1DB08002B00D18CE7AA
:100BA0008020C00303435B025B0AFF2487E7FF2C1E
:100BB00025D0DB08FF2DF0D05B025B0AECB27EE7AC
:100BC000002C4DD0FF2818D08024E4047242234327
:100BD0001B2A00DDC4E01C002025D440AA1A934043
:100BE0005A1E934123434A460500D31A884638E7E4
:100BF000721CF8D0F243FF28EAD10A004B46FF25C9
:100C0000D7E79B015B0A5AE7002E41D1651CE9B288
:100C1000012945DDFF2D00D14FE707244B445B0838
:100C20001C4038E707225A4B2D1A2340144032E764
:100C3000002C1DD1002B7AD14B46002B00D191E026
:100C40000A000025B5E7013E002E19D14B446CE7A0
:100C5000FF2C84D1FF25ACE74A468846D41A05E725
:100C6000002BC5D10A00FF28C8D005004B46A0E7DD
:100C7000002B49D14B46002B77D00A00FF2598E77F
:100C8000FF2C00D043E787E70A00FF24002316E784
:100C9000002C15D1002B57D1FF28E6D14B467BE71E
:100CA000002C20D1002B57D04946002953D04B446B
:100CB0005A0168D50724364A1C4001251340EAE64C
:100CC000FF28EBD08022D204764213431B2E53DC44
:100CD0002025AD1B1A00AB40F2405C1EA34113431C
:100CE0004B44050021E7002BD8D04946002900D10C
:100CF00052E78021C9030F4200D14DE76046084208
:100D000000D049E74B4647E74846FF25002800D179
:100D10004FE78022D203174204D06046104201D12F
:100D20004B46884601224146FF250A4041E7484696
:100D300000281FD01A1A500120D54A460724D31A7A
:100D40001C4088460025A6E6741CC9D0F643FF283F
:100D5000BCD14B4620E799464B460025DB082BE7E4
:100D6000012340E700220023A9E680230022DB03C1
:100D7000FF24A4E600251CE70123B1E7002AF1D0F7
:100D800013000025FCE60025FAE6C046FFFFFF7DC4
:100D9000FFFFFFFB41024200C30F490A120E002071
:100DA0007E2A0DD99D2A0CD8802000040143952A63
:100DB0000ADC9620821AD1404842002B00D108005C
:100DC0007047034A9818FBE7963A9140F4E7C0460B
:100DD000FFFFFF7F70B500283DD0C317C5185D40E9
:100DE000C40F280000F0EAFE9E22121A962A07DCA1
:100DF000D2B2082833DD083885406802400A23E073
:100E0000992A0BDD052329001B1AD94003001B3347
:100E10009D402B005D1EAB4119430D00052801DDEF
:100E2000431F9D402B000F490B406E0709D00F2632
:100E30003540042D05D004335D0102D59F220B40BF
:100E4000121A9B01580AD2B24002D205400AE407A6
:100E50001043204370BD002400220020F4E7680204
:100E6000400AF1E7FFFFFFFB70B5041E34D000F02D
:100E7000A5FE9E22121A962A07DCD2B208282EDD81
:100E8000083884406002400A21E0992A09DD030005
:100E900021001B3399404B1E994105231B1ADC404E
:100EA0000C43052801DD431F9C4023000D490B40E6
:100EB000650709D00F252C40042C05D004335C01B4
:100EC00002D59F220B40121A9B01580AD2B240024F
:100ED000D205400A104370BD00220020F7E76002EF
:100EE000400AF4E7FFFFFFFBF0B54F464646D64603
:100EF0000C000903C0B5490A470F5E0039431F03C0
:100F0000DB0F9C4665007B0A570F1F436D0DE40FF6
:100F1000760DA146C000B846D200AB1B64457BD01D
:100F2000002B5FDD002E00D0A4E03E00164300D170
:100F300012E15E1E002E00D09EE1871A4346B842A1
:100F400080410125C91A4042091A0B0200D431E13F
:100F500049024E0A002E00D16EE1300000F02EFE54
:100F60000300083B1F2B00DD61E120223900D21A6B
:100F70009E40D1409F400E439D4200DD51E15D1BEC
:100F80006B1C1F2B00DD7CE12021C91A3D003000C5
:100F90008F408840DD40791E8F4131000722284371
:100FA000D940002507433A40002A09D00F233B408F
:100FB000042B05D03B1DBB42BF417F42C9191F0016
:100FC0000B0200D426E26A1CC64B55056D0D9A42F1
:100FD00000D106E1C44AFF080A40530752023B43CE
:100FE000120B8EE0002B00D0B8E06B1C5B055B0D94
:100FF000012B00DC30E1871A4346B842B641CB1AD8
:1010000076429E1B330200D54CE13B003343A1D115
:1010100000220024002570E0002B00DCE5E0002E1B
:1010200000D183E0AF4EB54260D08026360437430E
:10103000B846382B00DC3EE1434613431F007A1EBE
:1010400097413F1887428041404209180B0200D463
:10105000B0E0A44B01359D4200D1C3E0A24A7B0819
:101060000A4001210F401F435108D30707221F43A5
:101070003A4099E79B4EB54238D080263604374334
:10108000B846382B00DDDCE01F2B00DC30E11E0011
:101090004746203EF740BC46202B04D04026F31A9A
:1010A00046469E403243170063467A1E97411F43CF
:1010B000CCE0002B00D104E24346134300D159E1B8
:1010C0004B07C00818438023C9081B03194208D0E6
:1010D0004546ED081D4204D14346D0085907084350
:1010E0002900420FC9007F4D1143C0004B07CA08B9
:1010F0007C49C00803438D4268D012036D05120B72
:101100006D0D002112031800130B0A0D12051A436E
:10111000764B2D0513402B435B00E4075B0823430C
:1011200019001CBC90469946A246F0BD3E001643ED
:1011300012D05E1E002E00D000E187188742804149
:1011400041444042091801250B0233D5022585E7A9
:1011500064463300414610001D00C7E7002D00D053
:10116000DAE00C000443F3D05C1C00D19FE15D4C3D
:10117000A64200D12FE1DB43382B00DD66E11F2BB7
:1011800000DD83E120240500E41A0F00DD40D94092
:10119000A0404346A7405B1A441EA04198462F43F7
:1011A0003843171ABA42924143465242991A64464A
:1011B0003500CAE607223A40002A00D0F6E64B077F
:1011C000CA084849FF083B438D4296D11900114394
:1011D00000D19EE1802109030A431203120B414D05
:1011E0008FE71500002200238BE7002B00D0C7E01B
:1011F0006B1C5F057F0D012F00DCF1E0394DAB4228
:1012000000D1B9E085180A0085428941424449422B
:1012100051180722CF076D082F4349083A401D0097
:10122000C2E607223049ED1A31403A40BCE63E00A2
:101230002838864000279FE6380000F0BFFC2030A9
:101240008EE6434613431F007A1E9741C71BB842E0
:1012500080414042091A78E60E003B0006431343E2
:10126000002D61D1002E00D0F4E0002B00D11BE155
:1012700064463900100039E71A4FBB427AD0330078
:10128000FFE630001F3DE840202B03D04021CB1A61
:101290009E4037437B1E9F41072207433A4000216F
:1012A000002589E7171A4346BA42B641591A7642D1
:1012B0008E1B64464EE61F2B00DDADE02026474620
:1012C000F61AB740B9461700B246DF404E463E43D5
:1012D00037005646B240561EB24117434246DA40E6
:1012E0008918AEE6FF070000FFFF7FFFFFFF0F80BA
:1012F00020264746F61AB740B9461700B246DF40E7
:101300004E463E4337005646B240561EB241174342
:101310004246DA40891A99E77F4CA6425BD0802486
:1013200024045B42214327E7002E0CD1002B00D17F
:10133000CBE0644639001000774DD7E6764FBB42CC
:1013400018D0330075E6002B14D04B07C0081843A3
:101350008023C9081B03194207D0FC081C4204D192
:101360007907D0080843E14621004C46420FC900E6
:101370001143C000684DB9E61D0000220023C0E6FD
:10138000002D5BD10D00054300D1E2E65D1C00D1CC
:10139000B0E0614DAE421FD0DB43382B71DC1F2B18
:1013A00000DD96E020250F00ED1AAF40B94607009A
:1013B000AA46DF404D463D432F005546A840D94040
:1013C000451EA84188440743BF18974292415142A5
:1013D000414435003AE6644635004146100085E652
:1013E0000B000343002D00D063E6002BF5D04346ED
:1013F000134300D17AE6871887428041072241448F
:10140000404209183A400B0200D4D5E6434B01355F
:101410001940C9E5380069E61E004746203EF740FE
:10142000BC46202B04D04026F31A46469E40324349
:10143000170063467A1E97411F4302E6364DAE42BF
:10144000CAD080252D045B422943A6E70843411EEC
:101450008841A6E6002B00D148E6871A4346B842E9
:10146000B641CB1A76429E1B33024BD5171A434620
:10147000BA429241591A5242891A072264463A40A6
:1014800092E501430F00791E8F419DE71C000F007C
:10149000203CE740202B03D04024E31A9940084326
:1014A000411E884138437CE60022002425E6171AB5
:1014B0004346BA429241591A5242891A644635004B
:1014C00043E541461000144D10E68022002412032B
:1014D00080E61D000F00203DEF40BC46202B03D0CE
:1014E0004025EB1A9940084307006346781E874160
:1014F0001F4369E7871897429B4141445B42C918E3
:101500003500A3E53B003343CED0072231003A40FB
:1015100052E600231A00F4E5FF070000FFFF7FFFFB
:10152000F0B55746DE464E464546E0B583460600D2
:101530000F03480087B092461D003F0B400DCC0FB3
:10154000002800D16FE0DE4B984238D08023FF00A6
:101550001B041F43730F3B430193DA4B002799464B
:1015600000239B46F60081442B0369001B0B524667
:101570009846490DED0F002900D185E0D04B9942E6
:1015800000D173E04346DA0080231B041343524624
:10159000CC48520F84461343524600206144D20087
:1015A00089442100694000918C46012149448A46C2
:1015B0000F2F00D990E0C449BF00CF59BF465B460A
:1015C0003B43019300D06AE10223082700268146AD
:1015D0009B46C9E732005846019B614600910228AC
:1015E00000D175E0032800D1FEE1012800D02CE1F4
:1015F00000230027002600253F032A0D3F0BB34898
:1016000012053A4302401B051343009A5B00D107C1
:101610005B080B433000190007B03CBC904699466C
:10162000A246AB46F0BD5B463B43019300D12FE1A0
:10163000002F00D1A5E1380000F0C0FA03000B3BF9
:101640001C2B00DD96E11D22D31A5A460100DA4018
:101650005E4608398F4013008E403B4301939C4BFC
:1016600000271B1A994600239B467DE741465346B7
:101670000B4393498C46E144002B00D01AE102222F
:101680000220174300228CE7134300D10DE14346AB
:10169000002B00D181E1404600F090FA02000B3AA5
:1016A0001C2A00DD72E10100434608398B40984650
:1016B0001D239A1A5346D3401A00434613435246F9
:1016C0008A404946081A824989468144002068E7D1
:1016D0007B4B002700268EE7140C1204120C11001D
:1016E000370C3604350C794328008C462E006043B5
:1016F0006044834656432100300C80465846794367
:1017000040440291844506D98846802149028C468E
:10171000E044414602913604010C360C00048B462D
:1017200081191E0C1B041B0C0391190079438C4674
:10173000280075436544A8465843050C4544774343
:10174000A94203D9802149028C466744290C8C4662
:1017500039000004000C2D042D186144AB440591A0
:101760005946049101990F043F0C080C390051436C
:101770004243904602008C46090C8B4662437C43F0
:1017800044445C44A04503D9802149028846424430
:10179000210C884661460904090C8C4639005943DE
:1017A000434370437E430F0CF6182404BE1964446F
:1017B00042448C46B34203D980235B02984640449E
:1017C000029B61469846049B370443449B46AB45C5
:1017D000AD416B420D0405992D0C8C467F19674471
:1017E000FD18A8465D462D19A542A44193466442C2
:1017F000A446C344DC448F42BF4198459B41934576
:101800009241A445A4415B427F421F43360C5242A1
:101810006442BF192243BF18624638184302D20DF2
:10182000039913436A020A43501E82416146ED0D3B
:101830002A434E023243D90100D4B3E001265008B6
:1018400032400243DE0732435B08224C5444002CF2
:1018500062DD510709D00F201040042805D0101D6B
:101860009042924152429B180200D90104D5802433
:101870001948E400034054441848844200DD27E737
:101880005E075B02D2081F0B630516435B0DB2E6D1
:10189000002399460133042700269B4664E6032370
:1018A000019781460C279B465EE6012201201743E3
:1018B000002276E6032303201F43434671E6C04619
:1018C000FF07000001FCFFFF1C490008FFFF0F801D
:1018D0000DFCFFFFFF030000FFFFFFFEFE070000FF
:1018E0000023802700933F030026434B83E6019BA0
:1018F0003200A446584670E6AC466EE68027019951
:101900003F0339422DD03B422BD11F433F033F0BB6
:1019100000951600384B6EE601252D1B382D00DD95
:1019200066E61F2D40DC35481C00504416008240FE
:101930008440EE40501E824134431443EB40620722
:1019400009D00F222240042A05D02200141D9442FF
:10195000804140421B181A023ED501230027002671
:1019600049E68027019B3F031F433F033F0B009441
:10197000214B40E603005A46283B9A40002601923C
:101980006DE6584600F01AF9203057E6030052463B
:10199000283B9A401300002293E6504600F00EF9CF
:1019A00020307BE6CA4650E71F201E004042041B41
:1019B000E640202D03D0124C5444A3401A43501E3D
:1019C0008241324307260027164009D00F2000230A
:1019D000104014000428B9D122005E075B021F0BDF
:1019E000D2081643002306E680273F031F433F0328
:1019F0003F0B1600004BFEE5FF0700001E04000031
:101A00003E04000030B5144D0A034B00120B5B0D71
:101A1000C90F0024AB4211DD104CA34210DC80241E
:101A2000640322430E4CE41A1F2C0CDD0D48C31A2C
:101A3000DA4013005C42002900D11C00200030BDB8
:101A4000094BCC18FAE7094DE040AC4663449A4094
:101A500013000343EEE7C046FE0300001D04000030
:101A60003304000013040000FFFFFF7FEDFBFFFFC6
:101A700070B500282DD0C317C5185D40C40F2800CD
:101A800000F09CF8154B1B1A5B055B0D0A2815DD51
:101A90000B38854000222D032D0B002110002D0353
:101AA0000A0D2D0B12052A430D4D1B052A40134329
:101AB0005B00E4075B082343190070BD02002900A6
:101AC000153291400A000B21081AC5402D032D0B39
:101AD000E3E70024002300250022DEE71E040000C7
:101AE000FFFF0F8010B5041E25D000F067F8144BDF
:101AF0001B1A5B055B0D0A2812DD0B38844000229F
:101B00002403240B0021100024030A0D240B1205CA
:101B100022430C4C1B05224013435B00590810BDA7
:101B200002002100153291400A000B21081AC4401E
:101B30002403240BE6E7002300240022E2E7C0464A
:101B40001E040000FFFF0F808446081C6146FFE76B
:101B50001FB500F0C7F8002801D40021C8421FBDFE
:101B600010B500F049F84042013010BD10B500F04A
:101B7000B9F8002801DB002010BD012010BDC046CF
:101B800010B500F0AFF8002801DD002010BD0120E5
:101B900010BDC04610B500F057F8002801DC002049
:101BA00010BD012010BDC04610B500F04DF8002852
:101BB00001DA002010BD012010BDC0461C21012308
:101BC0001B04984201D3000C10391B0A984201D320
:101BD000000A08391B09984201D30009043902A2FE
:101BE000105C40187047C046040302020101010165
:101BF000000000000000000070B542004E024C00E2
:101C000045026D0A120EC30F760A240EC90FFF2A71
:101C10000FD0FF2C11D00120A24200D070BDB542E0
:101C2000FCD18B420DD0002AF8D12800451EA841D6
:101C3000F4E70120002DF1D1EBE70120002EEDD1DA
:101C4000E9E70020EAE7C04670B54A004E024502C7
:101C500044006D0A240EC30F760A120EC90FFF2C22
:101C600015D0FF2A0ED0002C15D1002A01D1002E4C
:101C70001CD0002D14D08B4227D00220013B1840ED
:101C8000013870BD002EEED002204042F9E7002D51
:101C9000FAD1FF2A0ED0002A0ED1002EEDD00BE093
:101CA00001230139994308000130EAE70020002DA3
:101CB000E7D0E2E7002EE7D18B42DED1944205DD8A
:101CC0000221581E08400138DBE70024A24204DC50
:101CD000B542D2D80020B542D3D2581E0123984332
:101CE0000130CEE730B5420044024D02C30F480038
:101CF000640A120E6D0A000EC90FFF2A12D0FF28C7
:101D00000CD0002A12D1002819D1002D17D1002C97
:101D10002BD00220013B1840013826E0002DF0D0E6
:101D2000022022E0002CFBD1FF281FD000281FD169
:101D3000002D1DD10220013B1840013815E0002C78
:101D40000ED08B42E5D10022904204DCAC42E0D8B8
:101D50000020AC4209D2581E01239843013004E010
:101D60000123013999430800013030BD002DD7D13E
:101D70008B42CED18242E7DD0221581E0840013855
:101D8000F3E7C04600B583B00E4A916901231943B9
:101D90009161926913400193019B0520002200216B
:101DA000404200F0C9FF022000220021404200F022
:101DB000C3FF012000220021404200F0BDFF03B01C
:101DC00000BDC0460010024010B50D480D4B036029
:101DD000E1235B02436000238360C36003610C2244
:101DE00042618361C3610362436202F007F9002824
:101DF00000D110BD5C21044800F064F9F9E7C04649
:101E000088030020003801405C49000800B587B015
:101E10000268134B9A4201D007B000BD114A916984
:101E20008020C00101439161936903400093009BAE
:101E30000C2301930A3B0293013B03930322049278
:101E40000593902001A9C00502F0B6FA00220121F5
:101E50001B2000F071FF1B2000F09EFFDCE7C04656
:101E6000003801400010024000B585B019481A4BF7
:101E7000036080231B06436000238360C36001224C
:101E80000261042141618361C36102624362C22134
:101E9000FF318162C3620363426301F04DF80028A1
:101EA0000ED10123019380235B0102930723039347
:101EB00001A9084801F02EF9002806D105B000BD9F
:101EC0004A21064800F0FEF8EBE75421034800F0F1
:101ED000F9F8F3E7F80300200024014068490008FE
:101EE00000B587B002680E4B9A4201D007B000BD22
:101EF0000C4A9169802080000143916193690340FD
:101F00000093009B02230193013302930023039368
:101F10007138FF3801A9C00502F04EFAE6E7C04665
:101F2000002401400010024082B00268074B9A4230
:101F300001D002B07047064AD16902231943D1612A
:101F4000D26913400193019BF3E7C04600040040AF
:101F50000010024000B587B00268094B9A4201D0D8
:101F600007B000BD0223019302930023039304935F
:101F70000133059301A9034802F01EFAF0E7C046B9
:101F8000000400400004004800B58BB01C481D4B05
:101F900003600023436083601B4AC2600361836166
:101FA00001F076FD00281BD100230893099308A9AE
:101FB000134801F090FE002817D160230193134BC2
:101FC00002930023039305930C2201A90C4801F00E
:101FD000B9FD00280ED10A48FFF7BCFF0BB000BDC9
:101FE0003F210B4800F06EF8DEE74621084800F07C
:101FF00069F8E2E74F21064800F064F8EBE7C046D5
:102000004404002000040040BF120000AF040000A0
:102010007449000810B5204B1B68002B14D01E4BD0
:102020005B68002B16D01C4B9B68002B18D01A4BFA
:10203000DB68002B1AD0184B1B69002B1DD0164BE8
:102040005B69002B20D010BD00F09EF9124B0122DD
:102050001A60E4E700F02EFA0F4B0A225A60E2E71A
:1020600000F074FB0C4B14229A60E0E700F022FEB3
:10207000094B96225200DA60DDE700F037FE064B8E
:10208000FA2252001A61DAE700F0FEFA024BC82287
:1020900092005A61D7E7C04684040020002301E083
:1020A0000133DBB2092B09D89A0005495258002A9E
:1020B000F6D09900013A02480A50F1E77047C0464D
:1020C00084040020FEE7000000B595B002230893C9
:1020D00001220B920F320C92109300231193A02235
:1020E00092031292139308A801F0AEF8002828D1A9
:1020F00007230493053B05930023069307930121CF
:1021000004A801F003FB00281FD101230093002342
:102110000293684602F0C4F800281AD101F0A0FB2F
:10212000FA218900FDF7F0FF00F040FE042000F0E6
:1021300059FE012000220021404200F0FDFD15B0B3
:1021400000BDBF210548FFF7BDFFCC210348FFF7C5
:10215000B9FFD3210148FFF7B5FFC0468049000809
:1021600010B500F065FEFFF7AFFF00F035F8FFF7A0
:102170002BFEFFF779FEFFF707FF00F02DFD0A4B5E
:1021800018700A4C200001F035FC094800F092FF5D
:102190000C21200001F058FD2368FA2292001A64F5
:1021A000FFF738FFFCE7C04660030020440400202E
:1021B000F80300207047FEE77047704710B500F045
:1021C00047FE00F01FFE10BD10B5024801F0D6FF1B
:1021D00010BDC04688030020F0B589B0394B59695D
:1021E0008020C003014359615A6902400092009A5D
:1021F000596980208002014359615A690240019265
:10220000019A5A698021C9020A435A615B690B40ED
:102210000293029B9024E40500220121200002F099
:1022200098F9C02101224901200002F092F9802191
:1022300000220902200002F08CF900220821224825
:1022400002F087F90122E0211F4802F082F9802381
:102250005B000393002504950127059703A920003F
:1022600002F0AAF880239B000393184B0493059572
:1022700003A9200002F0A0F88023DB00039304955B
:10228000059503A9200002F097F8114B03930497DA
:1022900005950326069603A9200002F08DF8282351
:1022A000039304970595069603A9074802F084F85E
:1022B00000220221072000F03FFD072000F06CFD06
:1022C00009B0F0BD001002400004004800002110D9
:1022D00001980000114B1A6801210A431A605A68DC
:1022E0000F4802405A601A680E4802401A601A6885
:1022F0000D4802401A605A680C4802405A60DA6A77
:102300000F208243DA621A6B094802401A635A6B43
:102310008A435A6300229A607047C0460010024008
:102320000CB8FF08FFFFF6FEFFFFFBFFFFFFC0FF3B
:10233000ECFEFFFF134B20229A61183A9A62902319
:10234000DB05802212029A62002309E00D4A18314F
:1023500091610C4A08219161400080B20133DBB2E7
:102360000F2B09D8074A0821916202B2002AEDDB3F
:10237000044A20219162ECE79023DB0580221202BF
:102380009A61704700040048F8B52B4B1E882B4B10
:102390001D88002411E0A2001219530059184900A9
:1023A000274BC85A80235840FFF7C4FF0A2130004A
:1023B000FDF7AAFE86B20134E4B2032C10D80A213C
:1023C0003000FDF727FF89B2012CE4D0A2001219DA
:1023D00053005B185B001A4A985AFFF7ABFFE5E71A
:1023E000002409E0FF20FFF7A5FF0A212800FDF7E0
:1023F0008BFE85B20134E4B2032C1CD80A212800DC
:10240000FDF708FF8EB2271DBA00D21953009B19A1
:102410005B000B4A985AFFF78DFF012CE2D1BB00FD
:10242000DF19790089194900054BC85A80235840A3
:10243000FFF780FFD9E7F8BD6203002064030020A6
:1024400004000020154B5B699B051AD59023DB0522
:102450001B695B050DD5124B1B78002B04D1114A6B
:1024600013880A3313800CE00F4A1388013313805A
:1024700007E00B4B1B78002B0AD00B4A1388013B5B
:102480001380064A516980239B000B4353617047B8
:10249000044A13880A3B1380F3E7C0460004014056
:1024A000A4000020740300207203002010B5FFF781
:1024B000C9FF10BD404B1A78052A74D893003F4AD3
:1024C000D3589F469023DB051B69DB0503D53A4BA8
:1024D00000221A706EE0384B01221A706AE09023D5
:1024E000DB051B69DB0503D5334B00221A7061E065
:1024F000314B02221A705DE09023DB051B69DB057E
:1025000012D42F4A13780133DBB213702D4A012104
:102510001170142B02D9284B04221A709023DB056A
:10252000802212019A6145E0234B03221A7041E098
:102530009023DB051B69DB0503D51F4B00221A70B6
:1025400038E01D4B01221A7034E09023DB051B6933
:10255000DB0517D400231A4A13701A4A137090230C
:10256000DB05802212019A62802252019A61164A8A
:1025700013780133DBB21370142B1BD90E4B0522D9
:102580001A7017E00C4B03221A7013E09023DB053E
:102590001B69DB0507D40D4B01221A709023DB0564
:1025A000802252019A620023034A1370044A137076
:1025B000054A13707047C04666030020A44900080E
:1025C00067030020A400002068030020840300208B
:1025D000F8B50700140053001E5A881BFEF7FAFBDB
:1025E000051C631C5B00D85B801BFEF7F3FB011C22
:1025F000281CFDF7C7FF051C2000FEF7EBFB011CA4
:10260000281CFDF725FEF8BDF8B5013A96B274080E
:102610008C4201D000270DE02000FEF725FCF8BD1C
:102620002000FEF721FCFAE78D421DD2671CBFB2E5
:10263000BE4220D36400235A8B421AD0F319DA0F1A
:10264000D218521094B213041B0C5D002D5A8D4207
:10265000E6D0E9D201335B001B5A8B42E4D9D2B2F7
:102660000648FFF7B5FFDAE78D42E1D9661EB6B23C
:10267000DEE70348D3E70348D1E7C046A8000020BF
:1026800000007F4300007E43F8B5254D286CFFF71E
:1026900029FA244A244BFEF743FF06000F00234C7F
:1026A0000023E05EFFF7E4F91E4A214BFEF738FFF6
:1026B00002000B0030003900FEF716FCFFF7A2F90C
:1026C0002B6C238081B265221A48FFF79DFF1A49BF
:1026D000FEF76AF8FDF7A4FD83B2184A1380184A82
:1026E0001088C01A00B2174A138801331BB2138036
:1026F000154A0021525E002A02D0012A09D0F8BDF5
:10270000022BFCDD104B01221A800E4B00221A8096
:10271000F5E70A30F3DA9023DB0501229A61EEE750
:10272000002401409A9999999999E93F7E030020E4
:102730009999C93FA80000200000204162030020B1
:1027400064030020760300207003002070B582B07F
:10275000814B1C88814B1B88E418A4B2804B1888DD
:102760002418A4B2FA239B009C4208D97A4BFA227F
:1027700092001A800023794A1380794A1380632CCF
:1027800007D8754B64221A800023744A1380744A58
:102790001380744B1C80744B1C80744E306CFFF79C
:1027A000A1F9734A734BFEF7BBFE00900191724D85
:1027B0000023E85EFFF75CF96D4A704BFEF7B0FE50
:1027C00002000B0000980199FEF78EFBFFF71AF943
:1027D000336C2B8081B265226948FFF715FF694988
:1027E000FDF7E2FFFEF7D6FA80B20300973B9BB2FB
:1027F000952B05D8644B1B221A80644B644A1A60DF
:1028000003002E3BFF3B9BB2632B48D85E4B192243
:102810001A805E4B5F4A1A60241AA4B222B25E4943
:102820000B88E3181BB20B805C498B4201DD5A4BCD
:102830001980594B0021595E594B994202DA564B87
:1028400057491980574B1888241A24B21A804E4BC6
:102850001D885543504B0020185EFEF7BBFA4B4BCA
:102860001968FDF7A1FF061C2800FEF7B3FA311C1A
:10287000FDF7EEFC051C2000FEF7ACFA4A49FDF717
:1028800093FF011C281CFDF7E3FCFEF783FA00B25E
:10289000424B98425ADC002859DC002057E00300E4
:1028A000923BFF3B9BB2632B06D8374B18221A8012
:1028B000364B3E4A1A60AFE70300F63BFF3B9BB244
:1028C000632B06D8304B14221A80304B374A1A60DB
:1028D000A2E7374BC3189BB2632B06D82A4B1022B2
:1028E0001A802A4B314A1A6096E7324BC3189BB2C2
:1028F000632B06D8244B0D221A80244B2E4A1A60D3
:102900008AE72E4BC3189BB2632B06D81E4B0922B5
:102910001A801E4B2A4A1A607EE72A4BC3189BB2C4
:10292000312B06D8184B08221A80184B264A1A60F9
:1029300072E7264BC3189BB2312B00D96CE7124BC0
:1029400008221A80114B224A1A6065E71348214B6E
:10295000186402B070BDC0466C03002072030020F2
:1029600074030020640300206A0300200024014057
:102970009A9999999999E93F820300209999C93FB9
:10298000A8000020000020417C03002078030020E4
:10299000B81E053E022B073E800300205C1200009B
:1029A000A4EDFFFF6E03002096430B3EE17A143E38
:1029B000A7FDFFFF43FDFFFF52B81E3EDFFCFFFFF8
:1029C000C1CA213E7BFCFFFF7B142E3E49FCFFFF6A
:1029D0003333333E0004004010B50B4C012240213C
:1029E000200001F0B6FD01228021200001F0B1FDA0
:1029F00000224021200001F0ACFD002280212000B7
:102A000001F0A7FD10BDC0460004004810B5084CF9
:102A100000224021200001F09CFD012280212000A5
:102A200001F097FD01224021200001F092FD10BD30
:102A30000004004800B587B00B4A51698020C002ED
:102A400001435161536903400093009BC0230193EC
:102A5000AF3B0293103B049301A9044801F0ACFC86
:102A6000FFF7D4FF07B000BD00100240000400488B
:102A700070B50500002415E001224021124801F044
:102A800068FD114E01228021300001F062FD00221C
:102A90008021300001F05DFD072C0ED06D00EDB2FD
:102AA0000134E4B2072C0ED86BB2002BE4DB002219
:102AB0004021054801F04DFDE3E7012240213000AF
:102AC00001F047FDEAE770BD0004004810B50D4C69
:102AD00001224021200001F03CFD01228021200044
:102AE00001F037FD4021200001F02CFD002807D126
:102AF000002400228021034801F02BFD200010BD9E
:102B00000124F6E70004004810B50B4C00224021D8
:102B1000200001F01EFD01228021200001F019FD9E
:102B200000228021200001F014FD0122402120001C
:102B300001F00FFD10BDC0460004004810B5084C60
:102B400001224021200001F004FD0122802120000B
:102B500001F0FFFC00228021200001F0FAFC10BDF2
:102B600000040048F8B507000024002506E0002214
:102B70008021104801F0EDFC0135EDB2072D10D891
:102B80006400E4B20B4E01228021300001F0E1FC30
:102B90004021300001F0D6FC0028E8D00134E4B236
:102BA000E5E7002F03D0FFF7AFFF2000F8BDFFF7E8
:102BB000C5FFFAE70004004810B50400FFF73AFF2C
:102BC000FFF70AFF2000FFF753FFFFF77FFF040026
:102BD000FFF71CFF200010BD10B5A020FFF7ECFF91
:102BE000002801D1012010BDFFF710FF0020FAE7F7
:102BF00010B50400FFF7F0FE200A4000C0B26038B4
:102C0000C0B2FFF735FFFFF761FFE0B2FFF730FF1B
:102C1000FFF75CFFFFF7E0FEA120FFF729FFFFF7BA
:102C200055FF0020FFF79EFF0400FFF7EFFE200096
:102C300010BD70B504000D00FFF7CEFE200A400065
:102C4000C0B26038C0B2FFF713FFFFF73FFFE0B23A
:102C5000FFF70EFFFFF73AFF2800FFF709FFFFF726
:102C600035FFFFF7D3FE022000F000F970BDF8B584
:102C70000E00140009E0451CADB2771CFFF7B8FF49
:102C80003070013CA4B23E002800002CF3D1F8BD06
:102C900070B504000E0007E031782000FFF7C9FF8F
:102CA0000134A4B201362A00551EADB2002AF3D178
:102CB00070BD000000B583B00A4B1B78012B01D01A
:102CC00003B000BD084B18880A22694601F0B4FC25
:102CD000052269460020FFF7DBFF024B00221A7035
:102CE000EEE7C046840300206A03002010B50E4BB7
:102CF0001B78012B04D09023DB0501229A6210BDC2
:102D00000A4B1B78002BF6D0094C0522210000202D
:102D1000FFF7ADFF200001F04CFC064B1880034B81
:102D200000221A70E7E7C04660030020720100200D
:102D3000AC0400206C03002070B5002811DB84086F
:102D4000134DC034A400625903231840C000FC3363
:102D50001E008640B24389010B40834013436351F8
:102D600070BDC0B20F220240083A920806329200AB
:102D7000084BD3185D6803242040C000FF221400D4
:102D80008440A54389010A4082402A435A60E7E70C
:102D900000E100E000ED00E01F2318401E3B8340EF
:102DA000014A13607047C04600E100E001380A4B59
:102DB00098420FD8094A50600948036A1B021B0A4F
:102DC000C02109060B43036200239360073313609D
:102DD000002070470120FCE7FFFFFF0010E000E04B
:102DE00000ED00E0042805D0054A136804218B4358
:102DF00013607047024A136804210B431360F8E71D
:102E000010E000E010B5FFF749F910BD10B504005F
:102E100000F026FDFA218900FDF776F9FFF7C6FFDD
:102E20000120002221004042FFF786FF002010BD54
:102E300010B5064A136810210B4313600020FFF7FA
:102E4000E5FFFEF79FFF002010BDC04600200240B6
:102E5000024A1368013313607047C046B40400206F
:102E6000014B18687047C046B404002030B583B0E9
:102E70000190FFF7F5FF0500019C631C00D00134B1
:102E8000FFF7EEFF401BA042FAD303B030BD0000B5
:102E900030B583B0040000230193036899680322CE
:102EA0000A40012A0ED09968204A114212D19A682C
:102EB00001210A439A601E4B18681E49FDF724F948
:102EC000019015E01A68D2072DD4DA681204EAD509
:102ED000002008E0636C102213436364A36C0F3A74
:102EE0001343A364012003B030BD019B013B019358
:102EF000019B002BF9D1FFF7B3FF050023681B6886
:102F0000DB070ED4FFF7ACFF401B0228F6D9636C39
:102F1000102213436364A36C0F3A1343A36401208C
:102F2000E1E70020DFE70020DDE7C0461700008072
:102F30000000002040420F0070B5041E00D1B0E038
:102F4000436C002B7DD0636CDB0600D5A3E02168C9
:102F50008B6804221A4000D09DE0636C5248034005
:102F60000630FF3003436364886803230340012B6A
:102F70006DD0CB6818208343A0680343CB602168E1
:102F80000B699B009B08606803430B612168CB6859
:102F900046480340CB60A3699B03E169C9030B4327
:102FA000216A48030343606B012857D08020400109
:102FB0000343E06803432069022851D01343226B86
:102FC00052001343626A012A4CD0A26AC221FF3127
:102FD0008A4202D0E16A0A4313432168CA681A434D
:102FE000CA60A26B802149058A420DD0012A0BD00C
:102FF000022A09D0032A07D0042A05D0052A03D0C3
:10300000062A01D0072A0AD1206841690722914384
:10301000416120684169A56B2A400A4342612268E8
:10302000D26823490A409A422BD0636C1222934300
:10303000023A13436364A36C0F3A1343A364012061
:103040002EE0836440228354FEF74AFF7BE70B683F
:10305000DB079BD4CB681B0498D48AE71000A7E752
:103060000422ABE7002903D1802252021343ACE7CC
:10307000626C20210A436264A26C1F390A43A26475
:10308000A3E70023A364636C03229343023A134330
:103090006364002004E0636C102213436364012026
:1030A00070BD0120FCE7C046FDFEFFFF1902FEFFD8
:1030B000E7FF3F8310B5040003689B685B0723D4D8
:1030C0004023C35C012B21D040230122C254C36999
:1030D000012B14D10020636C0D4A1A4080235B0041
:1030E000134363640023A3644022A3542368243A57
:1030F0001A602268936804210B43936010BDFFF7A8
:10310000C7FE0028E7D0F9E70220F7E70220F5E73D
:10311000FEF0FFFF30B583B004000023019340337D
:10312000C35C012B00D181E040230122C25403681B
:103130009A68520770D43E4A4868904253D09A6ABF
:1031400001200D68A84002439A62A36B80225205B9
:1031500093421ED0012B1CD0022B1AD0032B18D067
:10316000042B16D0052B14D0062B12D0072B10D011
:1031700022685069072303408868984209D0506943
:10318000072398435061206842698D682B401343A0
:1031900043610B681A00103A012A01D9002040E06F
:1031A000244A1268102B09D08023DB031343214AE1
:1031B00013600B68102B04D0002032E080231B0426
:1031C000F4E71D4B18681D49FCF79EFF8300181893
:1031D0004300019302E0019B013B0193019B002B03
:1031E000F9D100201DE09A6A01200D68A8408243B1
:1031F0009A620B681A00103A012A01D9002010E0E7
:103200000C4A1268102B05D00D4B1340094A13606D
:10321000002006E00B4BF8E7436C20221343436485
:10322000012040230022E25403B030BD0220FBE71E
:1032300001100000082701400000002040420F005C
:10324000FFFFBFFFFFFF7FFF70B582B00400036880
:10325000DB0726D5AE4B5A680C231340042B18D03D
:10326000AB4B5A680C231340082B0ED06368012B1C
:103270003CD0002B51D1A64B1A68A6490A401A60CF
:103280001A68A5490A401A6036E0A14B5B68DB0367
:10329000ECD59F4B1B689B0303D56368002B00D1C3
:1032A000ECE123689B0773D5994B5B680C221A42AB
:1032B0005DD0974B5A680C231340082B53D0E3681A
:1032C000002B00D186E0924A136801210B43136062
:1032D000FFF7C6FD05008E4B1B689B0771D4FFF7F7
:1032E000BFFD401B0228F6D90320CAE1884A1168B5
:1032F00080235B020B4313606368002B25D0FFF72C
:10330000AFFD0500824B1B689B03CAD4FFF7A8FDE5
:10331000401B6428F6D90320B3E1052B09D07C4B70
:103320001A687C490A401A601A687B490A401A6088
:10333000E2E7774B19688022D2020A431A601968C3
:10334000802252020A431A60D6E7FFF789FD050082
:103350006F4B1B689B03A4D5FFF782FD401B6428BD
:10336000F6D903208DE16A4B5B68DB03A7D4684B79
:103370001B689B0704D5E368012B01D0012080E185
:1033800063490B68F82293432269D20013430B6010
:1033900023681B0744D5E369002B2ED05C4A536A8F
:1033A00001210B435362FFF75BFD0500584B5B6A3D
:1033B0009B0735D4FFF754FD401B0228F6D90320A4
:1033C0005FE153490B68F82293432269D20013430B
:1033D0000B60DDE74E4A136801218B431360FFF752
:1033E0003FFD05004A4B1B689B07D1D5FFF738FD11
:1033F000401B0228F6D9032043E1454A536A0121C4
:103400008B435362FFF72CFD0500414B5B6A9B0722
:1034100006D5FFF725FD401B0228F6D9032030E131
:1034200023685B0700D47FE0394BDB69DB001DD4E8
:10343000374AD169802040050143D161D3690340F7
:103440000193019B0125354B1B68DB0510D5A36853
:10345000012B21D0002B36D12D4B1A6A01218A4332
:103460001A621A6A03318A431A621AE00025EAE7EF
:103470002A4A116880235B000B431360FFF7F0FCBE
:103480000600264B1B68DB05E1D4FFF7E9FC801B37
:103490006428F6D90320F4E01D4A136A01210B4386
:1034A0001362A368002B24D0FFF7DAFC0600184B48
:1034B0001B6A9B0736D4FFF7D3FC801B184B98423E
:1034C000F5D90320DDE0052B09D0114B1A6A012143
:1034D0008A431A621A6A03318A431A62E1E70C4B83
:1034E0001A6A04210A431A621A6A03390A431A62E1
:1034F000D7E7FFF7B5FC0600054B1B6A9B0711D504
:10350000FFF7AEFC801B064B9842F5D90320B8E0CC
:1035100000100240FFFFFEFFFFFFFBFF00700040B6
:1035200088130000012D33D02368DB0610D56369B2
:10353000012B33D0053351D1544A536B04218B43B3
:103540005363536BF4318B43A169C9000B4353633D
:10355000236A002B00D193E04C4A51680C220A40A8
:10356000082A00D18FE0022B4FD0484A13684849FF
:103570000B401360FFF774FC0400444B1B689B0175
:103580007AD5FFF76DFC001B0228F6D9032078E0FE
:103590003E4AD3693F490B40D361C5E73B4B5A6B69
:1035A00004210A435A635A6B03390A435A63FFF7EB
:1035B00057FC0500354B5B6B9B0706D4FFF750FCAF
:1035C000401B0228F6D903205BE030494B6BF82200
:1035D0009343A269D20013434B63B9E72B4B5A6B59
:1035E00004210A435A635A6B03398A435A63FFF72B
:1035F00037FC0500254B5B6B9B07A9D5FFF730FC1B
:10360000401B0228F6D903203BE0204A13682049DA
:103610000B401360FFF724FC05001C4B1B689B014B
:1036200006D5FFF71DFC401B0228F6D9032028E031
:10363000164BDA6A0F218A43E16A0A43DA625A6852
:1036400015490A40A16A606A01430A435A60196831
:10365000802252040A431A60FFF702FC04000B4B5D
:103660001B689B0106D4FFF7FBFB001B0228F6D961
:10367000032006E0002004E0002002E0012000E03A
:10368000002002B070BD0120FBE7C04600100240E0
:10369000FFFFFFFEFFFFFFEFFFFFC2FF30B589B066
:1036A00004AA174B180032C832C2110002680A601F
:1036B0006A46103313CB13C21B681360114B5A6850
:1036C0000C231340082B19D1910C0733194004A87F
:1036D000445C0C49C96A0B406946C95CD30308D4F1
:1036E00063011B1B9801C01AC0000419200209B015
:1036F00030BD0548FCF708FD6043F8E70248F6E7EF
:103700003C4800080010024000127A0070B5050025
:103710000C004D4B1A68012313408B420BD24A49CF
:103720000B680122934323430B600B681A40A242AB
:1037300001D0012070BD2B689B0706D5434A536812
:10374000F0218B43A9680B4353602B68DB074BD5F3
:103750006B68012B20D0022B24D03C4A12689207C0
:103760006FD53A494A680320824313434B60FFF701
:1037700077FB06006B68012B1AD0022B26D0334B47
:103780005B680C221A422FD0FFF76AFB801B304B7C
:103790009842F4D90320CDE72C4A12689203E0D472
:1037A0000120C7E7294A12689201DAD40120C1E753
:1037B000264B5A680C231340042B15D0FFF750FBFF
:1037C000801B234B9842F3D90320B3E71F4B5A6861
:1037D0000C231340082B07D0FFF742FB801B1C4B28
:1037E0009842F3D90320A5E7174B1A680123134029
:1037F000A3420BD914490B680122934323430B6066
:103800000B681A40A24201D0012093E72B685B07A6
:1038100006D50E4A53680F490B40E9680B435360C5
:10382000FFF73CFF094B5A6812090F2313400A4A5D
:10383000D35CD840094B18600020FFF7E7FA00205E
:1038400078E7012076E7C0460020024000100240E1
:1038500088130000FFF8FFFF8C49000800000020DB
:10386000014B18687047C0460000002010B5FFF7F4
:10387000F7FF044B5A68120A07231340024AD35C2D
:10388000D84010BD001002409C49000830B5036AC2
:10389000012293430362036A426884697325AC433F
:1038A0000D682C430225AB438D682B43114DA84274
:1038B00005D0114DA84202D0104DA84205D10825CF
:1038C000AB43CD682B430425AB430A4DA84205D03A
:1038D000094DA84202D0094DA84205D1084D2A4001
:1038E0004D692A438D692A43426084614A68426374
:1038F000036230BD002C01400044014000480140FB
:10390000FFFCFFFF70B5036A184A13400362036AA5
:103910004268C4697325AC430E682643144C2340A7
:103920008C6824022343134CA04216D0114CA042B1
:1039300005D0114CA04202D0104CA04207D1104C2F
:1039400014404A69120122438C6925012A434260CE
:10395000C6614A68C263036270BD0A4C1C40CB68F2
:103960001B022343084C2340E0E7C046FFFEFFFF55
:10397000FFFDFFFF002C01400044014000480140D2
:10398000FFCFFFFFFFF7FFFFFFFBFFFF30B5036A2D
:10399000114A13400362026A4368C4690F4D2C4008
:1039A0000D682D022C430E4D15408A6812032A43E0
:1039B0000C4DA84205D00C4DA84202D00B4DA84298
:1039C00004D10B4D2B404D69AD012B434360C461C5
:1039D0004B680364026230BDFFEFFFFFFF8CFFFF07
:1039E000FFDFFFFF002C0140004401400048014080
:1039F000FFBFFFFF10B53D220223835404682368F4
:103A000001210B4323608154002010BD03681A4A32
:103A1000904202D0194A904203D1702293434A68DF
:103A20001343154A90420BD0144A904208D0144ACE
:103A3000904205D0134A904202D0134A904203D1DB
:103A4000124A1340CA681343802293434A691343BE
:103A500003608B68C3620B688362074B984205D092
:103A6000084B984202D0084B984201D10B6903637E
:103A7000012343617047C046002C01400004004010
:103A8000002000400044014000480140FFFCFFFFCF
:103A900070B5041E14D03D23C35C002B0AD03D2515
:103AA00002236355211D2068FFF7B0FF01236355F2
:103AB000002070BD3C330022C254FEF735FAEEE719
:103AC0000120F6E770B5036A102293430362036A8C
:103AD00042688469164D2C400D682D022543202430
:103AE000A3438C6824012343124CA04216D0114CEE
:103AF000A04205D0104CA04202D0104CA04207D1E9
:103B00000F4C14404A69920022438C69A60032434C
:103B1000426085614A688263036270BD8024A3436A
:103B20001C00CB681B0123434024A343DFE7C046AE
:103B3000FF8CFFFF002C0140004401400048014081
:103B4000FFF3FFFF70B504000D003C23C35C012BA5
:103B500069D03C230121C15401330131C154042AED
:103B600037D019D9082A4AD00C2A2AD1290000684E
:103B7000FFF70CFF2268D16980231B010B43D3613F
:103B80002268D36929490B40D3612168CB692A692E
:103B900012021343CB6114E0002A12D129000068FD
:103BA000FFF774FE2268936908210B439361226832
:103BB000936904398B4393612268936929690B43A4
:103BC00093613D230122E254013B0022E254002094
:103BD00070BD29000068FFF775FF22689169802396
:103BE0001B010B4393612268936910490B40936159
:103BF00021688B692A69120213438B61E1E729006E
:103C00000068FFF77FFE2268D36908210B43D36168
:103C10002268D36904398B43D3612268D369296947
:103C20000B43D361CDE70220D2E7C046FFFBFFFF85
:103C300010B501248C40036AA3430362036A8A40DF
:103C40001A43026210BD000010B504000122006892
:103C5000FFF7EEFF23680A4A934205D0094A9342D0
:103C600002D0094A934204D1596C802212020A43BD
:103C70005A642268136801210B431360002010BDB1
:103C8000002C0140004401400048014010B52123B0
:103C9000C35C022B03D004238363012010BD0268A0
:103CA00013680E218B43136001680A6801239A434D
:103CB0000A60C26B1900046CA14051602122835438
:103CC0001F330022C254436B002B02D098470020C0
:103CD000E4E70020E2E7F0B53C23C35C012B1ED0F3
:103CE0003C22012585543D24022303550668736850
:103CF0007027BB437360066873680F683B4373604B
:103D00000668B3688027BB43B3600668B368496838
:103D10000B43B3600555002383540020F0BD0220FF
:103D2000FCE700000268136806490B401360026854
:103D300093682331FF318B4393606A232022C2545E
:103D40007047C046DFFEFFFF70477047704710B5F1
:103D5000406A00235A228352083A8352FFF7F6FF43
:103D600010BD000010B50400836802691343426966
:103D70001343C269134301680A685C480240134355
:103D80000B60226853685A490B40E1680B4353604B
:103D9000A269236A1A4321688B685648034013437B
:103DA0008B60554B1A6B03231340012B26D0002B3D
:103DB00005D0022B24D0032B24D0102300E00023B5
:103DC00080221202E16991421ED0022B00D16FE0E5
:103DD0005ED9042B00D179E0082B00D084E0636821
:103DE000580880231B029C4660446168FCF78CF9EC
:103DF00023680004000CD86000202EE00423DFE7D5
:103E00000823DDE70223DBE7022B27D00FD9042BA1
:103E10002FD0082B39D16368580880235B029C4659
:103E200060446168FCF770F983B200200CE0002B5D
:103E30002BD1FFF71BFD400063685B08C018616869
:103E4000FCF762F983B200200F22190091435B1046
:103E5000083A13400B432268D36010BD63685808CA
:103E6000264B9C4660446168FCF74EF983B2002003
:103E7000EAE7FFF713FC400063685B08C01861685D
:103E8000FCF742F983B20020DEE701200023DBE7E4
:103E9000002B29D1FFF7EAFC63685B08C018616852
:103EA000FCF732F923680004000CD8600020D4E746
:103EB00063685808124B9C4660446168FCF724F91B
:103EC00023680004000CD8600020C6E7FFF7E6FB7B
:103ED00063685B08C0186168FCF716F92368000482
:103EE000000CD8600020B8E70120B6E7F369FFFFB7
:103EF000FFCFFFFFFFF4FFFF001002400024F4009B
:103F000000127A00436ADB0706D5026853682C4921
:103F10000B40816A0B435360436A9B0706D50268D6
:103F2000536828490B40C16A0B435360436A5B07DF
:103F300006D50268536824490B40016B0B4353605C
:103F4000436A1B0706D50268536820490B40416B42
:103F50000B435360436ADB0606D5026893681C492D
:103F60000B40816B0B439360436A9B0606D5026846
:103F7000936818490B40C16B0B439360436A5B061F
:103F80000BD50268536814490B40016C0B43536016
:103F900080235B03026C9A420AD0436A1B0606D553
:103FA000026853680D490B40816C0B4353607047A6
:103FB000026853680A490B40416C0B435360ECE7BD
:103FC000FFFFFDFFFFFFFEFFFFFFFBFFFF7FFFFF88
:103FD000FFEFFFFFFFDFFFFFFFFFEFFFFFFFF7FF39
:103FE000FFFF9FFF0023C366202269214254013155
:103FF00042544832835400207047000010B5041E1C
:1040000030D06923C35C002B22D069232422E254E0
:104010002268136801218B4313602000FFF7A2FE82
:10402000012814D0636A002B18D1226853680E4906
:104030000B4053602268936808218B439360226889
:10404000136807390B4313602000FFF7CBFF10BD47
:1040500068330022C254FDF7D9FED6E72000FFF7EF
:1040600051FFE2E70120F2E7FFF7FFFF6923C35C9E
:10407000212B2FD13133C35A9BB2002B11D0802377
:104080005B0182689A4218D0C36C5A1CC2641B78C8
:10409000026813855222835A013B9BB2835200204F
:1040A00019E00268136880218B431360026813686B
:1040B00040390B43136000200DE00369002BE3D16E
:1040C000C36C1B88DB05DB0D02681385C36C0233F0
:1040D000C364DFE70220704710B50268136840210F
:1040E0008B43136069232022C254FFF72DFE00206A
:1040F00010BD000010B55C23C25A0E33C35C222BE6
:1041000032D103689B8C9BB28021490184688C4228
:104110000ED0D2B2416D4C1C446513400B705A2234
:10412000835A013B9BB28352002B0BD0002021E02D
:1041300001690029EDD11340426D1380436D0233B4
:104140004365ECE7026813680B490B401360026893
:1041500093682331FF318B4393606A232022C2543A
:10416000FFF7F3FD002005E00268936908210B4387
:104170009361022010BDC046DFFEFFFF70B5040052
:104180000168CB6908680F221A4003D19D0601D54A
:1041900085065BD48D68002A6ED001222A4003D1A7
:1041A00090256D00284267D0DD0706D5C50504D5EA
:1041B00001250D62E16E2943E166990708D5002AC1
:1041C00006D0216802250D62E16E02352943E166C1
:1041D000590708D5002A06D0216804250D62E16E32
:1041E000023D2943E166190709D5810601D4002A59
:1041F00005D0226808211162E26E0A43E266E26E8F
:10420000002A41D09B0601D5830623D4E36E1B0709
:1042100003D423689B685B0628D52000FFF782FD46
:1042200023689A6852061DD59A6840218A439A608D
:10423000636E002B12D0194A5A63606EFFF726FD99
:10424000002821D0606E436B98471DE02000FFF7E7
:1042500051FF19E02000FFF74DFFD7E72000FFF7DF
:1042600075FD11E02000FFF771FD0DE02000FFF764
:104270006DFD0023E36607E01A0601D5020604D4AB
:104280005B0601D5430604D470BD2000FFF7EEFEA7
:10429000FAE72000FFF720FFF6E7C0464F3D000891
:1042A00070B582B004000368DB0335D53C4BDB6995
:1042B000DB0048D43A4AD169802040050143D161EE
:1042C000D36903400193019B0125364B1B68DB0535
:1042D0003BD5334B1B6AC0229200134013D0616858
:1042E0000A409A420FD02E4B186A2F4A02401E6A8B
:1042F0008021490231431962196A2C4E31401962FA
:104300001A62C30735D4264A136A27490B406168ED
:104310000B431362012D3BD02368DB0706D5204AEF
:10432000136B03218B43A1680B43136323689B0624
:1043300033D51B4A136B10218B43E1680B43136386
:10434000002002B070BD0025BFE7164A1168802327
:104350005B000B431360FEF783FD0600114B1B68E7
:10436000DB05B6D4FEF77CFD801B6428F6D903205C
:10437000E7E7FEF775FD0600094B1B6A9B07C2D4F1
:10438000FEF76EFD801B0A4B9842F5D90320D8E753
:10439000D36908490B40D361BEE70020D1E7C0468E
:1043A0000010024000700040FFFCFFFFFFFFFEFF17
:1043B00088130000FFFFFFEFF0B5C64600B582B0DE
:1043C000002338E0032600E00026AE4035003D43E0
:1043D0000234A400554EA551554C25684246D4439D
:1043E0002E0026404A68D20302D5424615432E00CD
:1043F0004F4D2E606D682E0026404A68920302D50C
:10440000424615432E004A4D6E60AD682E00264090
:104410004A68D20202D5424615432E00444DAE6092
:10442000ED682C404A68920202D542462A431400A5
:104430003F4AD46001330A681400DC4071D0012582
:104440009D402A409046F5D04C68022C01D0122C99
:104450000ED1DC080834A400275807261E40B600F9
:104460000F22B24097430A69B24016003E432650DD
:1044700002685F0003242600BE40F64332409446A3
:104480004A681440BC406246144304604C68621E93
:10449000012A03D9112C01D0122C10D18468344088
:1044A000A446CC68BC406246144384604468AC4374
:1044B0004A681209012515409D4025434560C4689E
:1044C00026408C68BC403443C4604A68D200B1D5F1
:1044D000184DAE6901242643AE61AD692C400194AC
:1044E000019C9C08A51CAD00104EAF5903251D4032
:1044F000AD000F26AE40B7439026F605B04200D17E
:1045000062E70D4EB04208D00C4EB04207D00C4EC0
:10451000B04200D156E7052657E7012655E70226A7
:1045200053E702B004BC9046F0BDC0460000014015
:104530000004014000100240000400480008004848
:10454000000C004803690B4201D100207047012094
:10455000FCE7002A01D1816270478161FCE700001D
:104560000D4885460D480E490E4A002302E0D458F6
:10457000C4500433C4188C42F9D30B4A0B4C0023AB
:1045800001E013600432A242FBD3FDF7A3FE00F06A
:1045900017F8FDF7E5FDFEE7001000200000002001
:1045A00044030020F44A000844030020B80400201B
:1045B000FEE710B50A22002100F0C4F810BD00008B
:1045C00070B500260C4D0D4C641BA410A64209D1F9
:1045D000002600F027F90A4D0A4C641BA410A642DD
:1045E00005D170BDB300EB5898470136EEE7B30034
:1045F000EB5898470136F2E7EC4A0008EC4A00080D
:10460000EC4A0008F04A0008931E10B50C00222B5B
:1046100004D900231C000B70200010BD0A2A09D108
:10462000002807DA2D230B7001214042611800F0A9
:104630009DF8F1E70021F9E710B5FFF7E5FF10BDA0
:10464000F0B51F000E0087B00590019102920C9802
:10465000347800F0BDF8082200194378751C134027
:1046600036D12D2C36D1B51C74780126002F62D09E
:10467000102F09D1302C07D120222B789343582BAF
:1046800054D110276C7802352D4B3900F3181800DF
:104690000393FBF7BFFD049101210023494202006F
:1046A0008C4618002100303909291AD80C00A7427D
:1046B00023DD591C09D06346824206D302D10499F6
:1046C000A14202DB0123784320182C780135E9E769
:1046D0002E00BCE72B2C01D01E00C7E7B51C747858
:1046E000FAE721004139192901D8373CDFE72100D9
:1046F0006139192901D8573CD9E75A1C08D1059AC4
:1047000023331360029B0398002B09D107B0F0BD3F
:10471000002E00D04042029A002AF7D0002B01D090
:104720006B1E0193029B019A1A60EFE73024002F61
:10473000AAD10827A8E7302C9ED00A27A4E7C046B4
:10474000FFFFFF7F37B51300064A05001068046AB3
:10475000002C00D1044C0A0000942900FFF770FFE0
:104760003EBDC04674010020D8010020F0B51700FE
:104770008DB0252206000D0002A8144900F03DF876
:1047800002AABB1E00240192222B05D92C70250001
:1047900028000DB0F0BD140030003900FBF73AFDE1
:1047A00084460198621CAB18415C5E1E31706646FF
:1047B000002EF0D11E702B005A1B9442E8DD1A78AF
:1047C000295D19702A550133013CF5E7BC49000801
:1047D000EC300068704782B0002900D101A9101E9A
:1047E00006D0002B06D013780B601078431E98413A
:1047F00002B0704702204042FAE7002310B59A4207
:1048000000D110BDCC5CC4540133F8E70B1E04D0BA
:10481000FF2A04D98A2303608B3B180070470A7073
:104820000123FAE7F8B5C046F8BC08BC9E467047BD
:0C483000F8B5C046F8BC08BC9E467047B6
:10483C0002030405060708090A0B0C0D0E0F1010D5
:10484C000102030405060708090A0B0C0D0E0F10D4
:10485C00020700083E060008620600080006000871
:10486C0062060008DE060008620600080006000862
:10487C003E0600083E060008DE060008000600089A
:10488C00340700083407000834070008EA0600085B
:10489C003E0600083E06000862060008FE050008F9
:1048AC0062060008DE06000862060008FE05000825
:1048BC003E0600083E060008DE060008FE0500085D
:1048CC00340700083407000834070008E80600081D
:1048DC00A00800084A0800084A08000878090008DF
:1048EC0046080008460800086E0900087809000808
:1048FC00460800086E0900084608000878090008F8
:10490C007C0900087C0900087C090008840900085F
:10491C00D8160008DA150008DA150008F81800088F
:10492C00D4150008D4150008E0180008F818000881
:10493C00D4150008E0180008D4150008F818000871
:10494C00EE180008EE180008EE180008FC18000815
:10495C005372632F75736172742E63005372632FDD
:10496C006164632E630000005372632F74696D2EB3
:10497C00630000005372632F6D61696E2E6300003B
:10498C0000000000000000000102030406070809F3
:10499C000000000001020304C4240008DE24000807
:1049AC00F8240008302500084A2500088C2500084A
:1049BC003031323334353637383961626364656689
:1049CC006768696A6B6C6D6E6F70717273747576F3
:1049DC007778797A004300504F534958002E0000E5
:1049EC002020202020202020202828282828202093
:1049FC0020202020202020202020202020202020AB
:104A0C008810101010101010101010101010101022
:104A1C000404040404040404040410101010101002
:104A2C0010414141414141010101010101010101DB
:104A3C00010101010101010101010110101010100F
:104A4C0010424242424242020202020202020202AC
:104A5C0002020202020202020202021010101020D4
:104A6C00000000000000000000000000000000003A
:104A7C00000000000000000000000000000000002A
:104A8C00000000000000000000000000000000001A
:104A9C00000000000000000000000000000000000A
:104AAC0000000000000000000000000000000000FA
:104ABC0000000000000000000000000000000000EA
:104ACC0000000000000000000000000000000000DA
:104ADC0000000000000000000000000000000000CA
:044AEC00E9000008D5
:044AF000C1000008F9
:104AF40000127A00C001F901A401B00199019201E8
:104B04008201F80180019001C002F902A402B002FE
:104B1400990292028202F80280029002C004F9040F
:104B2400A404B004990492048204F8048004900458
:104B3400C008F908A408B008990892088208F8087F
:104B440080089008C010F910A410B01099109210A9
:104B54008210F81080109010C020F920A420B020FA
:104B6400992092208220F82080209020C040F94093
:104B7400A440B040994092408240F8408040904028
:104B8400C080F980A480B080998092808280F8806F
:104B94008080908001000000DB0302042A04530497
:104BA4007C04A604D104FC04280555058205AF0540
:104BB400DD050B06390668069706C606F5062407C2
:104BC40053078307B207E1070F083E086C089A08E9
:104BD400C808F50822094E097A09A509D009FA0975
:104BE400240A4D0A750A9C0AC30AEA0A0F0B340BFD
:104BF400580B7B0B9E0BC00BE10B020C210C400CE1
:104C04005E0C7C0C990CB50CD00CEB0C050D1E0D38
:104C1400370D4E0D660D7C0D920DA80DBD0DD10DF9
:104C2400E40DF80D0A0E1C0E2E0E3F0E4F0E5F0EF5
:104C34006E0E7D0E8C0E9A0EA80EB50EC20ECF0E01
:104C4400DB0EE70EF20EFD0E080F120F1C0F260FDF
:104C5400300F390F420F4A0F530F5B0F630F6B0F67
:104C6400720F010078010020000000000000000025
:104C74000000000000000000000000000000000030
:104C84000000000000000000000000000000000020
:104C94000000000000000000000000000000000010
:104CA4000000000000000000000000000000000000
:104CB40000000000000000000000000000000000F0
:104CC400000000000000000043000000000000009D
:104CD40000000000000000000000000000000000D0
:104CE400000000000000000043000000000000007D
:104CF40000000000000000000000000000000000B0
:104D0400000000000000000043000000000000005C
:104D1400000000000000000000000000000000008F
:104D2400000000000000000043000000000000003C
:104D3400000000000000000000000000000000006F
:104D4400000000000000000043000000000000001C
:104D5400000000000000000000000000000000004F
:104D640000000000000000004300000000000000FC
:104D7400000000000000000000000000000000002F
:104D840000000000000000004300000000000000DC
:104D9400000000000000000000000000000000000F
:104DA40000000000000000000D480008D74700087C
:104DB40000000000EB490008E9490008EA4900083E
:104DC400EA490008EA490008EA490008EA490008F3
:104DD400EA490008EA490008EA490008EA490008E3
:104DE400FFFFFFFFFFFFFFFFFFFFFFFFFFFF0000CD
:104DF4000100415343494900000000000000000045
:104E0400000000000000000000000000000000009E
:104E14000000415343494900000000000000000025
:104E2400000000000000000000000000000000007E
:044E3400000000007A
:040000050800456149
:00000001FF
