:020000040800F2
:100000000010002001440008F5210008F721000835
:1000100000000000000000000000000000000000E0
:10002000000000000000000000000000F9210008AE
:100030000000000000000000FB210008FD21000876
:1000400051440008000000005144000851440008D9
:10005000514400085144000851440008E1240008BC
:1000600000000000514400085144000851440008B9
:1000700051440008514400085144000800000000A9
:100080005144000800000000000000005144000836
:100090000000000051440008514400085144000889
:1000A0000000000051440008000000000922000880
:1000B0000000000000000000000000000000000040
:1000C00010B5064C2378002B07D1054B002B02D02E
:1000D000044800E000BF0123237010BDD8010020B8
:1000E00000000000684E0008044B10B5002B03D040
:1000F0000349044800E000BF10BDC04600000000F6
:10010000DC010020684E0008002243088B4274D3B3
:1001100003098B425FD3030A8B4244D3030B8B4208
:1001200028D3030C8B420DD3FF22090212BA030C11
:100130008B4202D31212090265D0030B8B4219D3F2
:1001400000E0090AC30B8B4201D3CB03C01A524112
:10015000830B8B4201D38B03C01A5241430B8B425A
:1001600001D34B03C01A5241030B8B4201D30B0343
:10017000C01A5241C30A8B4201D3CB02C01A52416A
:10018000830A8B4201D38B02C01A5241430A8B422D
:1001900001D34B02C01A5241030A8B4201D30B0216
:1001A000C01A5241CDD2C3098B4201D3CB01C01A30
:1001B000524183098B4201D38B01C01A524143093A
:1001C0008B4201D34B01C01A524103098B4201D328
:1001D0000B01C01A5241C3088B4201D3CB00C01A95
:1001E000524183088B4201D38B00C01A524143080D
:1001F0008B4201D34B00C01A5241411A00D2014632
:10020000524110467047FFE701B5002000F006F8A4
:1002100002BDC0460029F7D076E770477047C04658
:100220009E2110B5C905041C01F0BEFC002803D1B5
:10023000201C00F0AFFD10BD9E21201CC90500F060
:10024000E5FB00F0A7FD80231B069C466044F2E717
:10025000F8B54746CE4643025B0A4400C20F9C46AF
:100260004800DD004B02240E5B0A000E80B5984664
:1002700026009146C90FDB00271A8A4229D0002F99
:1002800015DD00284AD1002B00D095E0ED08FF2CA9
:1002900000D188E06B025B0AE6B25B02F605580A01
:1002A0003043D20710430CBC90469946F8BD002F4E
:1002B00000D087E0601CC0B2012800DCB6E0EE1A76
:1002C000720100D5C5E0002E3DD10022002600239A
:1002D000E3E7002F00DC96E000285DD0FF2C60D023
:1002E0008022D20413431B2F00DDECE02022D21B1E
:1002F00018009340F8405A1E93410343ED186B01D8
:100300007BD50134FF2C00D1B7E0012207262A401B
:100310006B089A4D1D4015432E4029E0FF2CB5D0A7
:100320008022D20413431B2F00DDB2E02022D21B17
:1003300019009340F9405A1E93410B43ED1A6B018B
:100340005BD5AD01AE09300001F038FC05388640C0
:10035000844265DC041B330020200134E340041B8D
:10036000A640751EAE41334307261D0000241E40E3
:1003700001224B461A40002E04D00F232B40042BA1
:1003800000D004356B0100D480E70134E6B2FF2CC5
:100390002FD1FF26002380E7002B52D1FF2C00D065
:1003A00074E70A00ED08002DF3D08023DB032B4314
:1003B0005B025B0AFF2670E7013F002FBED0FF2CD7
:1003C000B1D163E7002C47D0FF2869D08024E40432
:1003D0007A4225431B2A00DDC5E02C002026D440AC
:1003E000B21A95406A1E954125435D1B040089465B
:1003F000A5E7AB015B0A50E7002401224B461A40F7
:100400006B07BAD142E7002F3BD10134E0B201289B
:100410004ADDFF2CBDD00726ED186D082E40A7E75A
:100420000723574D241A35401E40A1E7002C1BD14D
:10043000002D6ED1002B00D19AE00A001D003C0077
:1004400024E7013F002F00D158E7FF2C00D04AE7F6
:10045000A7E75E1B894676E7002D1CD10A00FF281E
:100460001FD004001D0011E7002D5DD1002B17D116
:1004700080230022DB03FF260FE70A00FF2600236C
:100480000BE7002C21D1002D66D1FF28E9D11D00FA
:1004900087E7012352E77A1CA7D0FA43FF2899D1B6
:1004A0000A001D00FF24F1E6002E21D1002D4FD0BF
:1004B000002B4CD0ED186B019ED5314B07362E40EA
:1004C00001241D4054E7012318E7FF28DFD08024D2
:1004D000E4047F4225431B2F4DDC2026F61B2C0015
:1004E000B540FC406A1E95412543ED18040006E71F
:1004F000002DCCD0002B00D153E780216046C903EA
:10050000084203D04046084200D11D00012111409D
:1005100047E7002B00D1B9E6EA1A500125D5072696
:100520005D1B2E40894623E7FF24002B00D1ADE65A
:1005300080226046D203104204D04046104201D1CE
:100540001D00894601224B46FF241A409EE62B00DF
:10055000DD080A0000249DE67A1CC6D0FF43FF2870
:10056000B9D11D001DE701253FE7151E00D044E766
:100570000022002391E60125B7E7C046FFFFFF7D7B
:10058000FFFFFFFBF8B557464E464546DE464402A0
:10059000E0B546008846640A360EC70F002E63D0C9
:1005A000FF2E24D08023E400DB041C430023994663
:1005B0009B467F3E434642465D02D20F5B006D0A7A
:1005C0001B0E9046924665D0FF2B55D0802200210D
:1005D000ED00D2047F3B1543F61A43464A467B4062
:1005E0000F2A00D98DE06D48920082589746002C62
:1005F00054D108239946063BFF269B46DAE700259F
:10060000534602291BD0032900D1BFE0012928D07D
:1006100030007F30002820DD6A0704D00F222A40F6
:10062000042A00D004352A0103D530005C4A80300A
:100630001540FE2803DCAC01640AC2B201E0FF22CF
:1006400000246402D205600ADB07104318433CBC57
:1006500090469946A246AB46F8BD0122101A1B28C7
:100660007CDD00220024ECE7002C1DD104239946F8
:10067000033B00269B469DE7FF3E002D20D1022133
:1006800043464A467B400A430F2AD8D84548920041
:1006900082589746002D19D10121F1E70C23994684
:1006A000093BFF269B4685E7200001F087FA762666
:1006B000431F9C4000237642361A99469B4679E7B1
:1006C0004A4603231A439146032186E7280001F096
:1006D00075FA431F36189D40763600217DE7802449
:1006E0000023E403FF22ACE700258023DB031C4248
:1006F00028D01D4226D12B435C02640A4346FF22C8
:100700009FE762016C01A24224D21B210025013E19
:10071000012710006D005200002801DB944201D82F
:10072000121B3D4301390029F3D11400621E94418C
:1007300025436DE7BA46594625005346022900D0A5
:1007400061E77CE78023DB031C436402640A3B000F
:10075000FF2276E7121B1A210125D9E79E362A00CF
:10076000B5402C00C240651EAC411443620704D062
:100770000F222240042A00D00434620103D4A401D1
:10078000640A00225DE7012200245AE78024E40382
:100790002C436402640AFF2253E7C046A04E0008BF
:1007A000FFFFFFF7E04E0008F0B54E4657464546BE
:1007B000DE46E0B543025B0A450083B00F1C994654
:1007C0002D0EC60F002D57D0FF2D24D08020DB002A
:1007D000C0041843002381469A469B467F3D7C0215
:1007E0007A00FB0F640A120E984623D0FF2A4BD0E2
:1007F000E30080240020E4047F3A1C43AD186B1C06
:1008000047460193534677403A000F2B48D87D491D
:100810009B00CB589F46002B00D085E008339A46BA
:10082000063B9B467C027A00FB0FFF25640A120EF2
:100830009846DBD1002C00D090E0524601231A43A9
:1008400092460120DBE74C4658461700022824D088
:10085000032800D1CFE00022002301284DD1580207
:10086000D205400AFF071043384303B03CBC904612
:100870009946A246AB46F0BD002B5BD104239A46B5
:10088000033B00259B46AAE7FF35002C60D152466A
:1008900002231A4392460220B1E7FF220023DEE73B
:1008A0004B461B0C9C464B462604360C18046146EE
:1008B0003300220C6446000C43434E4350435443E0
:1008C00080191A0C1218964203D9802149028C46CD
:1008D00064441B041B0C1004C01883015E1EB3414A
:1008E000800E1843130C1B199B0103431C002301AA
:1008F00079D5012362081C401443019A7F32002AF3
:100900004DDD630704D00F232340042B00D00434B3
:10091000230103D53C4B019A1C408032FE2ABCDCEB
:10092000A3015B0AD2B29AE70C239A46093BFF2542
:100930009B4654E7180001F041F94A46431F7625CB
:100940009A4000236D4291462D1A9A469B4646E7EF
:10095000524603231A439246032050E7200001F039
:100960002DF9431F2D1A9C40763D002047E7802338
:100970000027DB03FF2272E7424666E74C4632005F
:10098000584662E780234A46DB031A4222D01C42C3
:1009900020D123435B025B0A4746FF225FE7012326
:1009A0009A1A1B2A21DC23000199D3409E318C40E6
:1009B0001A0023005C1EA34113435A0704D00F22E0
:1009C0001A40042A00D004335A0111D49B015B0A57
:1009D000002244E780234A46DB0313435B025B0AA1
:1009E0003700FF223BE7019587E70022002336E727
:1009F0000122002333E78023DB0323435B025B0AEE
:100A0000FF222CE7204F0008FFFFFFF7F8B547460D
:100A1000CE464400C20F80B547024802400A8446D1
:100A2000664648007F0A240EF60025009046FB002B
:100A3000000EC90FB146FF2800D185E001267140A4
:100A4000261A914257D0002E43DD002800D07FE0C7
:100A50004946002900D1AAE0013E002E00D0F7E06F
:100A60005B1A5A0100D48BE09B019C09200001F025
:100A7000A5F805388440854200DDD3E0451B2300FE
:100A800020200135EB40451BAC40621E94412343BE
:100A9000072400251C40012241460A40002C04D0B6
:100AA0000F211940042900D00433590100D480E0FB
:100AB0000135ECB2FF2D00D0A3E0FF2400235B0240
:100AC000E405580AD207204310430CBC90469946CF
:100AD000F8BD002E74D1601CC0B2012800DCA7E074
:100AE0004A469C1A620100D5B6E0002CBED1002215
:100AF00000240023E3E7002E00DC85E0002846D038
:100B0000FF2C49D080224846D2041043814601225E
:100B10001B2E09DC20204C46801B84404A462000C6
:100B2000F240441EA04102439B185A0128D50135CA
:100B3000FF2D00D1A8E00122072494491A405B0848
:100B40000B4013431C40A6E7002E00D078E775E762
:100B5000FF2C54D080224946D204114389460122F9
:100B60001B2E09DC20214846891B88404A4601008B
:100B7000F240481E81410A439B1A5A0100D573E78F
:100B8000012241460A40590700D089E711E0484652
:100B9000002858D1FF2C0CD1DB08002B00D18CE7AA
:100BA0008020C00303435B025B0AFF2487E7FF2C1E
:100BB00025D0DB08FF2DF0D05B025B0AECB27EE7AC
:100BC000002C4DD0FF2818D08024E4047242234327
:100BD0001B2A00DDC4E01C002025D440AA1A934043
:100BE0005A1E934123434A460500D31A884638E7E4
:100BF000721CF8D0F243FF28EAD10A004B46FF25C9
:100C0000D7E79B015B0A5AE7002E41D1651CE9B288
:100C1000012945DDFF2D00D14FE707244B445B0838
:100C20001C4038E707225A4B2D1A2340144032E764
:100C3000002C1DD1002B7AD14B46002B00D191E026
:100C40000A000025B5E7013E002E19D14B446CE7A0
:100C5000FF2C84D1FF25ACE74A468846D41A05E725
:100C6000002BC5D10A00FF28C8D005004B46A0E7DD
:100C7000002B49D14B46002B77D00A00FF2598E77F
:100C8000FF2C00D043E787E70A00FF24002316E784
:100C9000002C15D1002B57D1FF28E6D14B467BE71E
:100CA000002C20D1002B57D04946002953D04B446B
:100CB0005A0168D50724364A1C4001251340EAE64C
:100CC000FF28EBD08022D204764213431B2E53DC44
:100CD0002025AD1B1A00AB40F2405C1EA34113431C
:100CE0004B44050021E7002BD8D04946002900D10C
:100CF00052E78021C9030F4200D14DE76046084208
:100D000000D049E74B4647E74846FF25002800D179
:100D10004FE78022D203174204D06046104201D12F
:100D20004B46884601224146FF250A4041E7484696
:100D300000281FD01A1A500120D54A460724D31A7A
:100D40001C4088460025A6E6741CC9D0F643FF283F
:100D5000BCD14B4620E799464B460025DB082BE7E4
:100D6000012340E700220023A9E680230022DB03C1
:100D7000FF24A4E600251CE70123B1E7002AF1D0F7
:100D800013000025FCE60025FAE6C046FFFFFF7DC4
:100D9000FFFFFFFB41024200C30F490A120E002071
:100DA0007E2A0DD99D2A0CD8802000040143952A63
:100DB0000ADC9620821AD1404842002B00D108005C
:100DC0007047034A9818FBE7963A9140F4E7C0460B
:100DD000FFFFFF7F70B500283DD0C317C5185D40E9
:100DE000C40F280000F0EAFE9E22121A962A07DCA1
:100DF000D2B2082833DD083885406802400A23E073
:100E0000992A0BDD052329001B1AD94003001B3347
:100E10009D402B005D1EAB4119430D00052801DDEF
:100E2000431F9D402B000F490B406E0709D00F2632
:100E30003540042D05D004335D0102D59F220B40BF
:100E4000121A9B01580AD2B24002D205400AE407A6
:100E50001043204370BD002400220020F4E7680204
:100E6000400AF1E7FFFFFFFB70B5041E34D000F02D
:100E7000A5FE9E22121A962A07DCD2B208282EDD81
:100E8000083884406002400A21E0992A09DD030005
:100E900021001B3399404B1E994105231B1ADC404E
:100EA0000C43052801DD431F9C4023000D490B40E6
:100EB000650709D00F252C40042C05D004335C01B4
:100EC00002D59F220B40121A9B01580AD2B240024F
:100ED000D205400A104370BD00220020F7E76002EF
:100EE000400AF4E7FFFFFFFBF0B54F464646D64603
:100EF0000C000903C0B5490A470F5E0039431F03C0
:100F0000DB0F9C4665007B0A570F1F436D0DE40FF6
:100F1000760DA146C000B846D200AB1B64457BD01D
:100F2000002B5FDD002E00D0A4E03E00164300D170
:100F300012E15E1E002E00D09EE1871A4346B842A1
:100F400080410125C91A4042091A0B0200D431E13F
:100F500049024E0A002E00D16EE1300000F02EFE54
:100F60000300083B1F2B00DD61E120223900D21A6B
:100F70009E40D1409F400E439D4200DD51E15D1BEC
:100F80006B1C1F2B00DD7CE12021C91A3D003000C5
:100F90008F408840DD40791E8F4131000722284371
:100FA000D940002507433A40002A09D00F233B408F
:100FB000042B05D03B1DBB42BF417F42C9191F0016
:100FC0000B0200D426E26A1CC64B55056D0D9A42F1
:100FD00000D106E1C44AFF080A40530752023B43CE
:100FE000120B8EE0002B00D0B8E06B1C5B055B0D94
:100FF000012B00DC30E1871A4346B842B641CB1AD8
:1010000076429E1B330200D54CE13B003343A1D115
:1010100000220024002570E0002B00DCE5E0002E1B
:1010200000D183E0AF4EB54260D08026360437430E
:10103000B846382B00DC3EE1434613431F007A1EBE
:1010400097413F1887428041404209180B0200D463
:10105000B0E0A44B01359D4200D1C3E0A24A7B0819
:101060000A4001210F401F435108D30707221F43A5
:101070003A4099E79B4EB54238D080263604374334
:10108000B846382B00DDDCE01F2B00DC30E11E0011
:101090004746203EF740BC46202B04D04026F31A9A
:1010A00046469E403243170063467A1E97411F43CF
:1010B000CCE0002B00D104E24346134300D159E1B8
:1010C0004B07C00818438023C9081B03194208D0E6
:1010D0004546ED081D4204D14346D0085907084350
:1010E0002900420FC9007F4D1143C0004B07CA08B9
:1010F0007C49C00803438D4268D012036D05120B72
:101100006D0D002112031800130B0A0D12051A436E
:10111000764B2D0513402B435B00E4075B0823430C
:1011200019001CBC90469946A246F0BD3E001643ED
:1011300012D05E1E002E00D000E187188742804149
:1011400041444042091801250B0233D5022585E7A9
:1011500064463300414610001D00C7E7002D00D053
:10116000DAE00C000443F3D05C1C00D19FE15D4C3D
:10117000A64200D12FE1DB43382B00DD66E11F2BB7
:1011800000DD83E120240500E41A0F00DD40D94092
:10119000A0404346A7405B1A441EA04198462F43F7
:1011A0003843171ABA42924143465242991A64464A
:1011B0003500CAE607223A40002A00D0F6E64B077F
:1011C000CA084849FF083B438D4296D11900114394
:1011D00000D19EE1802109030A431203120B414D05
:1011E0008FE71500002200238BE7002B00D0C7E01B
:1011F0006B1C5F057F0D012F00DCF1E0394DAB4228
:1012000000D1B9E085180A0085428941424449422B
:1012100051180722CF076D082F4349083A401D0097
:10122000C2E607223049ED1A31403A40BCE63E00A2
:101230002838864000279FE6380000F0BFFC2030A9
:101240008EE6434613431F007A1E9741C71BB842E0
:1012500080414042091A78E60E003B0006431343E2
:10126000002D61D1002E00D0F4E0002B00D11BE155
:1012700064463900100039E71A4FBB427AD0330078
:10128000FFE630001F3DE840202B03D04021CB1A61
:101290009E4037437B1E9F41072207433A4000216F
:1012A000002589E7171A4346BA42B641591A7642D1
:1012B0008E1B64464EE61F2B00DDADE02026474620
:1012C000F61AB740B9461700B246DF404E463E43D5
:1012D00037005646B240561EB24117434246DA40E6
:1012E0008918AEE6FF070000FFFF7FFFFFFF0F80BA
:1012F00020264746F61AB740B9461700B246DF40E7
:101300004E463E4337005646B240561EB241174342
:101310004246DA40891A99E77F4CA6425BD0802486
:1013200024045B42214327E7002E0CD1002B00D17F
:10133000CBE0644639001000774DD7E6764FBB42CC
:1013400018D0330075E6002B14D04B07C0081843A3
:101350008023C9081B03194207D0FC081C4204D192
:101360007907D0080843E14621004C46420FC900E6
:101370001143C000684DB9E61D0000220023C0E6FD
:10138000002D5BD10D00054300D1E2E65D1C00D1CC
:10139000B0E0614DAE421FD0DB43382B71DC1F2B18
:1013A00000DD96E020250F00ED1AAF40B94607009A
:1013B000AA46DF404D463D432F005546A840D94040
:1013C000451EA84188440743BF18974292415142A5
:1013D000414435003AE6644635004146100085E652
:1013E0000B000343002D00D063E6002BF5D04346ED
:1013F000134300D17AE6871887428041072241448F
:10140000404209183A400B0200D4D5E6434B01355F
:101410001940C9E5380069E61E004746203EF740FE
:10142000BC46202B04D04026F31A46469E40324349
:10143000170063467A1E97411F4302E6364DAE42BF
:10144000CAD080252D045B422943A6E70843411EEC
:101450008841A6E6002B00D148E6871A4346B842E9
:10146000B641CB1A76429E1B33024BD5171A434620
:10147000BA429241591A5242891A072264463A40A6
:1014800092E501430F00791E8F419DE71C000F007C
:10149000203CE740202B03D04024E31A9940084326
:1014A000411E884138437CE60022002425E6171AB5
:1014B0004346BA429241591A5242891A644635004B
:1014C00043E541461000144D10E68022002412032B
:1014D00080E61D000F00203DEF40BC46202B03D0CE
:1014E0004025EB1A9940084307006346781E874160
:1014F0001F4369E7871897429B4141445B42C918E3
:101500003500A3E53B003343CED0072231003A40FB
:1015100052E600231A00F4E5FF070000FFFF7FFFFB
:10152000F0B55746DE464E464546E0B583460600D2
:101530000F03480087B092461D003F0B400DCC0FB3
:10154000002800D16FE0DE4B984238D08023FF00A6
:101550001B041F43730F3B430193DA4B002799464B
:1015600000239B46F60081442B0369001B0B524667
:101570009846490DED0F002900D185E0D04B9942E6
:1015800000D173E04346DA0080231B041343524624
:10159000CC48520F84461343524600206144D20087
:1015A00089442100694000918C46012149448A46C2
:1015B0000F2F00D990E0C449BF00CF59BF465B460A
:1015C0003B43019300D06AE10223082700268146AD
:1015D0009B46C9E732005846019B614600910228AC
:1015E00000D175E0032800D1FEE1012800D02CE1F4
:1015F00000230027002600253F032A0D3F0BB34898
:1016000012053A4302401B051343009A5B00D107C1
:101610005B080B433000190007B03CBC904699466C
:10162000A246AB46F0BD5B463B43019300D12FE1A0
:10163000002F00D1A5E1380000F0C0FA03000B3BF9
:101640001C2B00DD96E11D22D31A5A460100DA4018
:101650005E4608398F4013008E403B4301939C4BFC
:1016600000271B1A994600239B467DE741465346B7
:101670000B4393498C46E144002B00D01AE102222F
:101680000220174300228CE7134300D10DE14346AB
:10169000002B00D181E1404600F090FA02000B3AA5
:1016A0001C2A00DD72E10100434608398B40984650
:1016B0001D239A1A5346D3401A00434613435246F9
:1016C0008A404946081A824989468144002068E7D1
:1016D0007B4B002700268EE7140C1204120C11001D
:1016E000370C3604350C794328008C462E006043B5
:1016F0006044834656432100300C80465846794367
:1017000040440291844506D98846802149028C468E
:10171000E044414602913604010C360C00048B462D
:1017200081191E0C1B041B0C0391190079438C4674
:10173000280075436544A8465843050C4544774343
:10174000A94203D9802149028C466744290C8C4662
:1017500039000004000C2D042D186144AB440591A0
:101760005946049101990F043F0C080C390051436C
:101770004243904602008C46090C8B4662437C43F0
:1017800044445C44A04503D9802149028846424430
:10179000210C884661460904090C8C4639005943DE
:1017A000434370437E430F0CF6182404BE1964446F
:1017B00042448C46B34203D980235B02984640449E
:1017C000029B61469846049B370443449B46AB45C5
:1017D000AD416B420D0405992D0C8C467F19674471
:1017E000FD18A8465D462D19A542A44193466442C2
:1017F000A446C344DC448F42BF4198459B41934576
:101800009241A445A4415B427F421F43360C5242A1
:101810006442BF192243BF18624638184302D20DF2
:10182000039913436A020A43501E82416146ED0D3B
:101830002A434E023243D90100D4B3E001265008B6
:1018400032400243DE0732435B08224C5444002CF2
:1018500062DD510709D00F201040042805D0101D6B
:101860009042924152429B180200D90104D5802433
:101870001948E400034054441848844200DD27E737
:101880005E075B02D2081F0B630516435B0DB2E6D1
:10189000002399460133042700269B4664E6032370
:1018A000019781460C279B465EE6012201201743E3
:1018B000002276E6032303201F43434671E6C04619
:1018C000FF07000001FCFFFF604F0008FFFF0F80D3
:1018D0000DFCFFFFFF030000FFFFFFFEFE070000FF
:1018E0000023802700933F030026434B83E6019BA0
:1018F0003200A446584670E6AC466EE68027019951
:101900003F0339422DD03B422BD11F433F033F0BB6
:1019100000951600384B6EE601252D1B382D00DD95
:1019200066E61F2D40DC35481C00504416008240FE
:101930008440EE40501E824134431443EB40620722
:1019400009D00F222240042A05D02200141D9442FF
:10195000804140421B181A023ED501230027002671
:1019600049E68027019B3F031F433F033F0B009441
:10197000214B40E603005A46283B9A40002601923C
:101980006DE6584600F01AF9203057E6030052463B
:10199000283B9A401300002293E6504600F00EF9CF
:1019A00020307BE6CA4650E71F201E004042041B41
:1019B000E640202D03D0124C5444A3401A43501E3D
:1019C0008241324307260027164009D00F2000230A
:1019D000104014000428B9D122005E075B021F0BDF
:1019E000D2081643002306E680273F031F433F0328
:1019F0003F0B1600004BFEE5FF0700001E04000031
:101A00003E04000030B5144D0A034B00120B5B0D71
:101A1000C90F0024AB4211DD104CA34210DC80241E
:101A2000640322430E4CE41A1F2C0CDD0D48C31A2C
:101A3000DA4013005C42002900D11C00200030BDB8
:101A4000094BCC18FAE7094DE040AC4663449A4094
:101A500013000343EEE7C046FE0300001D04000030
:101A60003304000013040000FFFFFF7FEDFBFFFFC6
:101A700070B500282DD0C317C5185D40C40F2800CD
:101A800000F09CF8154B1B1A5B055B0D0A2815DD51
:101A90000B38854000222D032D0B002110002D0353
:101AA0000A0D2D0B12052A430D4D1B052A40134329
:101AB0005B00E4075B082343190070BD02002900A6
:101AC000153291400A000B21081AC5402D032D0B39
:101AD000E3E70024002300250022DEE71E040000C7
:101AE000FFFF0F8010B5041E25D000F067F8144BDF
:101AF0001B1A5B055B0D0A2812DD0B38844000229F
:101B00002403240B0021100024030A0D240B1205CA
:101B100022430C4C1B05224013435B00590810BDA7
:101B200002002100153291400A000B21081AC4401E
:101B30002403240BE6E7002300240022E2E7C0464A
:101B40001E040000FFFF0F808446081C6146FFE76B
:101B50001FB500F0C7F8002801D40021C8421FBDFE
:101B600010B500F049F84042013010BD10B500F04A
:101B7000B9F8002801DB002010BD012010BDC046CF
:101B800010B500F0AFF8002801DD002010BD0120E5
:101B900010BDC04610B500F057F8002801DC002049
:101BA00010BD012010BDC04610B500F04DF8002852
:101BB00001DA002010BD012010BDC0461C21012308
:101BC0001B04984201D3000C10391B0A984201D320
:101BD000000A08391B09984201D30009043902A2FE
:101BE000105C40187047C046040302020101010165
:101BF000000000000000000070B542004E024C00E2
:101C000045026D0A120EC30F760A240EC90FFF2A71
:101C10000FD0FF2C11D00120A24200D070BDB542E0
:101C2000FCD18B420DD0002AF8D12800451EA841D6
:101C3000F4E70120002DF1D1EBE70120002EEDD1DA
:101C4000E9E70020EAE7C04670B54A004E024502C7
:101C500044006D0A240EC30F760A120EC90FFF2C22
:101C600015D0FF2A0ED0002C15D1002A01D1002E4C
:101C70001CD0002D14D08B4227D00220013B1840ED
:101C8000013870BD002EEED002204042F9E7002D51
:101C9000FAD1FF2A0ED0002A0ED1002EEDD00BE093
:101CA00001230139994308000130EAE70020002DA3
:101CB000E7D0E2E7002EE7D18B42DED1944205DD8A
:101CC0000221581E08400138DBE70024A24204DC50
:101CD000B542D2D80020B542D3D2581E0123984332
:101CE0000130CEE730B5420044024D02C30F480038
:101CF000640A120E6D0A000EC90FFF2A12D0FF28C7
:101D00000CD0002A12D1002819D1002D17D1002C97
:101D10002BD00220013B1840013826E0002DF0D0E6
:101D2000022022E0002CFBD1FF281FD000281FD169
:101D3000002D1DD10220013B1840013815E0002C78
:101D40000ED08B42E5D10022904204DCAC42E0D8B8
:101D50000020AC4209D2581E01239843013004E010
:101D60000123013999430800013030BD002DD7D13E
:101D70008B42CED18242E7DD0221581E0840013855
:101D8000F3E7C04600B583B00E4A916901231943B9
:101D90009161926913400193019B0520002200216B
:101DA000404200F02BFF022000220021404200F0C0
:101DB00025FF012000220021404200F01FFF03B058
:101DC00000BDC0460010024010B502281ADC0020F9
:101DD00001E0013001310B78002B15D0904213DA6D
:101DE0009BB20A4C2385094BDB695B06FBD50B785C
:101DF0000A2BEED1054B0D241C85044BDB695B06D9
:101E0000FBD5E6E70120404210BDC0460038014046
:101E100010B50D480D4B0360E1235B0243600023C6
:101E20008360C36003610C2242618361C36103620A
:101E3000436202F033F8002800D110BD5C21044851
:101E400000F060F9F9E7C0462402002000380140A4
:101E5000A04F000800B587B00268134B9A4201D02A
:101E600007B000BD114A91698020C0010143916112
:101E7000936903400093009B0C2301930A3B029358
:101E8000013B0393032204920593902001A9C0050E
:101E900002F0E2F9002201211B2000F0AFFE1B201E
:101EA00000F0DCFEDCE7C0460038014000100240D4
:101EB00000B585B019481A4B036080231B064360A8
:101EC00000238360C36001220261042141618361B8
:101ED000C36102624362C221FF318162C362036354
:101EE000426300F079FF00280ED101230193802383
:101EF0005B0102930723039301A9084801F05AF8F4
:101F0000002806D105B000BD4A21064800F0FAF8C5
:101F1000EBE75421034800F0F5F8F3E794020020C2
:101F200000240140AC4F000800B587B002680E4B9A
:101F30009A4201D007B000BD0C4A91698020800010
:101F400001439161936903400093009B0223019335
:101F500001330293002303937138FF3801A9C005B0
:101F600002F07AF9E6E7C046002401400010024082
:101F700082B00268074B9A4201D002B07047064A0D
:101F8000D16902231943D161D26913400193019BA6
:101F9000F3E7C046000400400010024000B587B0DF
:101FA0000268094B9A4201D007B000BD0223019399
:101FB00002930023039304930133059301A903487B
:101FC00002F04AF9F0E7C04600040040000400486F
:101FD00000B58BB01C481D4B036000234360836039
:101FE0001B4AC2600361836101F0A2FC00281BD17F
:101FF00000230893099308A9134801F0BCFD0028A9
:1020000017D160230193134B02930023039305938D
:102010000C2201A90C4801F0E5FC00280ED10A4869
:10202000FFF7BCFF0BB000BD3F210B4800F06AF882
:10203000DEE74621084800F065F8E2E74F21064850
:1020400000F060F8EBE7C046E0020020000400402A
:10205000BF120000AF040000B84F000810B51E4BBF
:102060001B68002B18D01C4B5B68002B1AD01A4B36
:102070009B68002B1CD0184BDB68002B1ED0164B26
:102080001B69002B21D0144B5B69002B03D1124B31
:10209000FA2292005A6110BD00F090F90E4B012215
:1020A0001A60E0E700F020FA0B4B0A225A60DEE7E4
:1020B00000F056FB084B14229A60DCE700F00CFBA2
:1020C000054B96225200DA60D9E700F083FD024BFF
:1020D000C82292001A61D6E720030020002301E005
:1020E0000133DBB2092B09D89A0005495258002A5E
:1020F000F6D09900013A02480A50F1E77047C0460D
:1021000020030020FEE7000000B595B002230893ED
:1021100001220B920F320C92109300231193A022F4
:1021200092031292139308A800F0DEFF002828D132
:1021300007230493053B059300230693079301218E
:1021400004A801F033FA00281FD1012300930023D3
:102150000293684601F0F4FF00281AD101F0D0FA8A
:10216000FA218900FDF7D0FF00F082FD042000F085
:102170009BFD012000220021404200F03FFD15B0F0
:1021800000BDBF210548FFF7BDFFCC210348FFF785
:10219000B9FFD3210148FFF7B5FFC046C44F00087F
:1021A00010B500F0A7FDFFF7AFFF00F035F8FFF71F
:1021B0002FFEFFF77DFEFFF70BFF00F0BBFC0A4B85
:1021C00018700A4C200001F065FB094800F0C2FEBF
:1021D0000C21200001F088FC2368FA2292001A6486
:1021E000FFF73CFFFCE7C046F4010020E0020020BE
:1021F000940200207047FEE77047704710B500F06A
:1022000089FD00F061FD10BD10B5024801F006FF28
:1022100010BDC04624020020F0B589B0374B596983
:102220008020C003014359615A6902400092009A1C
:10223000596980208002014359615A690240019224
:10224000019A5A698021C9020A435A615B690B40AD
:102250000293029BC0219025ED050122490128002F
:1022600002F0C7F8802100220902280002F0C1F81C
:1022700000220821224802F0BCF80122E021204877
:1022800002F0B7F880235B00039300240494012735
:10229000059703A9280001F0DFFF80239B0003932B
:1022A000184B0493059403A9280001F0D5FF80235F
:1022B000DB0003930494059403A9280001F0CCFFEC
:1022C00098231B020393049705940326069603A9FB
:1022D000280001F0C1FF2823039304970594069674
:1022E00003A9074801F0B8FF00220221072000F0EF
:1022F00085FC072000F0B2FC09B0F0BD00100240E0
:102300000004004800002110114B1A6801210A4303
:102310001A605A680F4802405A601A680E48024014
:102320001A601A680D4802401A605A680C48024048
:102330005A60DA6A0F208243DA621A6B0948024057
:102340001A635A6B8A435A6300229A607047C046E8
:10235000001002400CB8FF08FFFFF6FEFFFFFBFF76
:10236000FFFFC0FFECFEFFFF134B20229A61183ADB
:102370009A629023DB05802212029A62002309E010
:102380000D4A183191610C4A08219161400080B2D8
:102390000133DBB20F2B09D8074A0821916202B240
:1023A000002AEDDB044A20219162ECE79023DB0553
:1023B000802212029A61704700040048F8B52B4B46
:1023C0001E882B4B1D88002411E0A2001219530017
:1023D00059184900274BC85A80235840FFF7C4FFBB
:1023E0000A213000FDF790FE86B20134E4B2032CDE
:1023F00010D80A213000FDF70DFF89B2012CE4D07E
:10240000A200121953005B185B001A4A985AFFF792
:10241000ABFFE5E7002409E0FF20FFF7A5FF0A2155
:102420002800FDF771FE85B20134E4B2032C1CD8FC
:102430000A212800FDF7EEFE8EB2271DBA00D21940
:1024400053009B195B000B4A985AFFF78DFF012C34
:10245000E2D1BB00DF19790089194900054BC85A40
:1024600080235840FFF780FFD9E7F8BDF601002030
:10247000F801002004000020154B5B699B051AD56C
:102480009023DB051B695B050DD5124B1B78002BD8
:1024900004D1114A13880A3313800CE00F4A1388C1
:1024A0000133138007E00B4B1B78002B0AD00B4A3B
:1024B0001388013B1380064A516980239B000B431C
:1024C00053617047044A13880A3B1380F3E7C04600
:1024D00000040140A40000200402002002020020A9
:1024E00010B5FFF7C9FF10BD10B5454B1A78052A86
:1024F0006FD89300434AD3589F469023DB051B694E
:10250000DB0503D53E4B00221A7069E03C4B0122EB
:102510001A7065E09023DB051B69DB0503D5384B9A
:1025200000221A705CE0364B02221A7058E09023A9
:10253000DB051B69DB0512D4334A13780133DBB2A8
:102540001370324A01211170142B02D92C4B042232
:102550001A709023DB05802212019A6140E0284B1B
:1025600003221A703CE09023DB051B69DB0503D5D1
:10257000234B00221A7033E0214B01221A702FE006
:102580009023DB051B69DB051AD400231E4A137058
:102590001E4A13709023DB05802212019A6280226A
:1025A00052019A611A4A13780133DBB21370142B6B
:1025B00002D9134B05221A70164801F0D7FF0FE01D
:1025C0000F4B03221A700BE09023DB051B69DB0520
:1025D00007D500230A4A13700B4A13700C4A137074
:1025E00010BD0B4B00221A700B4B01321A700B48B6
:1025F00001F0BCFF9023DB05802252019A62E8E7DC
:10260000FA010020E84F0008FB010020A400002090
:10261000FC010020005000081402002004500008B3
:10262000F8B50700140053001E5A881BFEF7D2FBB2
:10263000051C631C5B00D85B801BFEF7CBFB011CF9
:10264000281CFDF79FFF051C2000FEF7C3FB011CA3
:10265000281CFDF7FDFDF8BDF8B5013A96B27408E7
:102660008C4201D000270DE02000FEF7FDFBF8BDF5
:102670002000FEF7F9FBFAE78D421DD2671CBFB2BE
:10268000BE4220D36400235A8B421AD0F319DA0FCA
:10269000D218521094B213041B0C5D002D5A8D42B7
:1026A000E6D0E9D201335B001B5A8B42E4D9D2B2A7
:1026B0000648FFF7B5FFDAE78D42E1D9661EB6B2EC
:1026C000DEE70348D3E70348D1E7C046A80000206F
:1026D00000007F4300007E43F8B5184D286CFFF7DB
:1026E00001FA174A174BFEF71BFF06000F00164CA6
:1026F0000023E05EFFF7BCF9114A144BFEF710FF10
:1027000002000B0030003900FEF7EEFBFFF77AF90C
:102710002B6C238081B265220D48FFF79DFF0D4988
:10272000FEF742F8FDF77CFD80B20B4B18800A21C2
:10273000FDF7EAFC094B1870F8BDC04600240140C3
:102740009A9999999999E93F0E0200209999C93F60
:10275000A800002000002041F6010020FD0100201B
:10276000F8B57F4B1B887F4A12889B189BB27E4A24
:1027700012889B189BB27D4A1380FA2292009342E2
:1027800008D9774AFA2189001180002275490A8008
:1027900075490A80632B07D8714A64211180002291
:1027A00070490A8070490A80714A1380714D286C03
:1027B000FFF798F9704A714BFEF7B2FE06000F0062
:1027C0006F4C0023E05EFFF753F96B4A6D4BFEF749
:1027D000A7FE02000B0030003900FEF785FBFFF773
:1027E00011F92B6C238081B265226748FFF734FF13
:1027F0006649FDF7D9FFFEF7CDFA80B20300C93B69
:102800009BB2C72B4AD8624B23221A80614B624A83
:102810001A60564B1B88181A80B205B25F490A88A5
:10282000821812B20A805E498A4201DD5B4A118039
:102830005A4A0023D15E5B4A914202DA574A59490B
:102840001180594A1488041B24B21580504B1B88F0
:102850005D43524B0020185EFEF7BCFA4D4B1968E1
:10286000FDF7A2FF061C2800FEF7B4FA311CFDF7A5
:10287000EFFC051C2000FEF7ADFA4C49FDF794FF74
:10288000011C281CFDF7E4FCFEF784FA00B2444B5F
:10289000984260DC00285FDC00205DE00300923B92
:1028A000FF3B9BB2632B06D8394B1E221A80394B53
:1028B0003F4A1A60ADE70300F63BFF3B9BB2632B38
:1028C00006D8334B19221A80324B3A4A1A60A0E7D5
:1028D000394BC3189BB2632B06D82D4B14221A8098
:1028E0002C4B364A1A6094E7354BC3189BB2632BC6
:1028F00006D8274B10221A80264B324A1A6088E7E6
:10290000314BC3189BB2632B06D8214B0F221A8080
:10291000204B2E4A1A607CE72D4BC3189BB2312BFB
:1029200006D81B4B08221A801A4B2A4A1A6070E7F5
:10293000294BC3189BB2312B06D8154B08221A809D
:10294000144B264A1A6064E7114B00221A80114B7F
:1029500000221A605DE71248214B1864F8BDC0469A
:10296000A600002002020020040200200002002035
:10297000F8010020002401409A9999999999E93F1A
:10298000120200209999C93FA800002000002041B0
:102990000C020020080200202B87163E10020020A7
:1029A0005C120000A4EDFFFFFE01002096430B3EE9
:1029B0002DB21D3E3333333EA7FDFFFFA4703D3ED5
:1029C00043FDFFFF14AE473EDFFCFFFF85EB513EAA
:1029D0007BFCFFFF3D0A573E49FCFFFF8FC2753E5F
:1029E0000004004010B50B4C01224021200001F0F2
:1029F00000FD01228021200001F0FBFC002240218B
:102A0000200001F0F6FC00228021200001F0F1FC02
:102A100010BDC0460004004810B5084C00224021FB
:102A2000200001F0E6FC01228021200001F0E1FC01
:102A300001224021200001F0DCFC10BD0004004810
:102A400000B587B00B4A51698020C0020143516133
:102A5000536903400093009BC0230193AF3B029353
:102A6000103B049301A9044801F0F6FBFFF7D4FFE3
:102A700007B000BD001002400004004870B505001A
:102A8000002415E001224021124801F0B2FC114E51
:102A900001228021300001F0ACFC002280213000B6
:102AA00001F0A7FC072C0ED06D00EDB20134E4B2AA
:102AB000072C0ED86BB2002BE4DB00224021054826
:102AC00001F097FCE3E701224021300001F091FC86
:102AD000EAE770BD0004004810B50D4C012240210A
:102AE000200001F086FC01228021200001F081FC01
:102AF0004021200001F076FC002807D100240022AC
:102B00008021034801F075FC200010BD0124F6E788
:102B10000004004810B50400FFF792FFFFF762FFC2
:102B20002000FFF7ABFFFFF7D7FF0400FFF774FFAC
:102B3000200010BD10B5A020FFF7ECFF002801D148
:102B4000012010BDFFF768FF0020FAE7F0B5C64688
:102B500000B580460E001700002516E0FA239B0002
:102B60009C422ED0F0B2FFF789FFFFF7B5FF002897
:102B700027D14346585DFFF781FFFFF7ADFF0028DF
:102B80001FD10136B6B20135ADB2BD4215D2002D0E
:102B900001D07307EDD1FFF73FFF00240C4B9C429F
:102BA000DCD8FFF71FFFA020FFF768FFFFF794FFB7
:102BB0000028D3D00134A4B2F0E7FFF72DFF0120A5
:102BC00002E0FFF729FF002004BC9046F0BDC0469C
:102BD000E703000010B5074B1B78012B00D010BD98
:102BE0008022520000210448FFF7B0FF014B002271
:102BF0001A70F4E714020020FD01002070B50028CF
:102C000011DB8408134DC034A4006259032318401B
:102C1000C000FC331E008640B24389010B40834054
:102C20001343635170BDC0B20F220240083A9208AC
:102C300006329200084BD3185D6803242040C00080
:102C4000FF2214008440A54389010A4082402A43A0
:102C50005A60E7E700E100E000ED00E01F231840C4
:102C60001E3B8340014A13607047C04600E100E00C
:102C700001380A4B98420FD8094A50600948036A44
:102C80001B021B0AC02109060B4303620023936049
:102C900007331360002070470120FCE7FFFFFF00AF
:102CA00010E000E000ED00E0042805D0054A1368BC
:102CB00004218B4313607047024A136804210B43BD
:102CC0001360F8E710E000E010B5FFF707FA10BD59
:102CD00010B5040000F014FDFA218900FDF714FA84
:102CE000FFF7C6FF0120002221004042FFF786FFC8
:102CF000002010BD10B5064A136810210B43136065
:102D00000020FFF7E5FFFFF73DF8002010BDC046AB
:102D100000200240024A1368013313607047C04626
:102D200048030020014B18687047C0464803002044
:102D300030B583B00400002301930368996803222F
:102D40000A40012A0ED09968204A114212D19A688D
:102D500001210A439A601E4B18681E49FDF7D4F9F9
:102D6000019015E01A68D2072DD4DA681204EAD56A
:102D7000002008E0636C102213436364A36C0F3AD5
:102D80001343A364012003B030BD019B013B0193B9
:102D9000019B002BF9D1FFF7C5FF050023681B68D5
:102DA000DB070ED4FFF7BEFF401B0228F6D9636C89
:102DB000102213436364A36C0F3A1343A3640120EE
:102DC000E1E70020DFE70020DDE7C04617000080D4
:102DD0000000002040420F0070B5041E00D1B0E09A
:102DE000436C002B7DD0636CDB0600D5A3E021682B
:102DF0008B6804221A4000D09DE0636C5248034067
:102E00000630FF3003436364886803230340012BCB
:102E10006DD0CB6818208343A0680343CB60216842
:102E20000B699B009B08606803430B612168CB68BA
:102E300046480340CB60A3699B03E169C9030B4388
:102E4000216A48030343606B012857D0802040016A
:102E50000343E06803432069022851D01343226BE7
:102E600052001343626A012A4CD0A26AC221FF3188
:102E70008A4202D0E16A0A4313432168CA681A43AE
:102E8000CA60A26B802149058A420DD0012A0BD06D
:102E9000022A09D0032A07D0042A05D0052A03D024
:102EA000062A01D0072A0AD12068416907229143E6
:102EB000416120684169A56B2A400A43426122684A
:102EC000D26823490A409A422BD0636C1222934362
:102ED000023A13436364A36C0F3A1343A3640120C3
:102EE0002EE0836440228354FFF71EF87BE70B68D3
:102EF000DB079BD4CB681B0498D48AE71000A7E7B4
:102F00000422ABE7002903D1802252021343ACE72D
:102F1000626C20210A436264A26C1F390A43A264D6
:102F2000A3E70023A364636C03229343023A134391
:102F30006364002004E0636C102213436364012087
:102F400070BD0120FCE7C046FDFEFFFF1902FEFF39
:102F5000E7FF3F8310B5040003689B685B0723D439
:102F60004023C35C012B21D040230122C254C369FA
:102F7000012B14D10020636C0D4A1A4080235B00A2
:102F8000134363640023A3644022A3542368243AB8
:102F90001A602268936804210B43936010BDFFF709
:102FA000C7FE0028E7D0F9E70220F7E70220F5E79F
:102FB000FEF0FFFF30B583B00400002301934033DF
:102FC000C35C012B00D181E040230122C25403687D
:102FD0009A68520770D43E4A4868904253D09A6A21
:102FE00001200D68A84002439A62A36B802252051B
:102FF00093421ED0012B1CD0022B1AD0032B18D0C9
:10300000042B16D0052B14D0062B12D0072B10D072
:1030100022685069072303408868984209D05069A4
:10302000072398435061206842698D682B40134301
:1030300043610B681A00103A012A01D9002040E0D0
:10304000244A1268102B09D08023DB031343214A42
:1030500013600B68102B04D0002032E080231B0487
:10306000F4E71D4B18681D49FDF74EF8830018184A
:103070004300019302E0019B013B0193019B002B64
:10308000F9D100201DE09A6A01200D68A840824312
:103090009A620B681A00103A012A01D9002010E048
:1030A0000C4A1268102B05D00D4B1340094A1360CF
:1030B000002006E00B4BF8E7436C202213434364E7
:1030C000012040230022E25403B030BD0220FBE780
:1030D00001100000082701400000002040420F00BE
:1030E000FFFFBFFFFFFF7FFF70B582B004000368E2
:1030F000DB0726D5AE4B5A680C231340042B18D09F
:10310000AB4B5A680C231340082B0ED06368012B7D
:103110003CD0002B51D1A64B1A68A6490A401A6030
:103120001A68A5490A401A6036E0A14B5B68DB03C8
:10313000ECD59F4B1B689B0303D56368002B00D124
:10314000ECE123689B0773D5994B5B680C221A420C
:103150005DD0974B5A680C231340082B53D0E3687B
:10316000002B00D186E0924A136801210B431360C3
:10317000FFF7D8FD05008E4B1B689B0771D4FFF746
:10318000D1FD401B0228F6D90320CAE1884A116804
:1031900080235B020B4313606368002B25D0FFF78D
:1031A000C1FD0500824B1B689B03CAD4FFF7BAFD23
:1031B000401B6428F6D90320B3E1052B09D07C4BD2
:1031C0001A687C490A401A601A687B490A401A60EA
:1031D000E2E7774B19688022D2020A431A60196825
:1031E000802252020A431A60D6E7FFF79BFD0500D2
:1031F0006F4B1B689B03A4D5FFF794FD401B64280D
:10320000F6D903208DE16A4B5B68DB03A7D4684BDA
:103210001B689B0704D5E368012B01D0012080E1E6
:1032200063490B68F82293432269D20013430B6071
:1032300023681B0744D5E369002B2ED05C4A536AF0
:1032400001210B435362FFF76DFD0500584B5B6A8C
:103250009B0735D4FFF766FD401B0228F6D90320F3
:103260005FE153490B68F82293432269D20013436C
:103270000B60DDE74E4A136801218B431360FFF7B3
:1032800051FD05004A4B1B689B07D1D5FFF74AFD4E
:10329000401B0228F6D9032043E1454A536A012125
:1032A0008B435362FFF73EFD0500414B5B6A9B0772
:1032B00006D5FFF737FD401B0228F6D9032030E181
:1032C00023685B0700D47FE0394BDB69DB001DD44A
:1032D000374AD169802040050143D161D369034059
:1032E0000193019B0125354B1B68DB0510D5A368B5
:1032F000012B21D0002B36D12D4B1A6A01218A4394
:103300001A621A6A03318A431A621AE00025EAE750
:103310002A4A116880235B000B431360FFF702FD0C
:103320000600264B1B68DB05E1D4FFF7FBFC801B86
:103330006428F6D90320F4E01D4A136A01210B43E7
:103340001362A368002B24D0FFF7ECFC0600184B97
:103350001B6A9B0736D4FFF7E5FC801B184B98428D
:10336000F5D90320DDE0052B09D0114B1A6A0121A4
:103370008A431A621A6A03318A431A62E1E70C4BE4
:103380001A6A04210A431A621A6A03390A431A6242
:10339000D7E7FFF7C7FC0600054B1B6A9B0711D553
:1033A000FFF7C0FC801B064B9842F5D90320B8E01C
:1033B00000100240FFFFFEFFFFFFFBFF0070004018
:1033C00088130000012D33D02368DB0610D5636914
:1033D000012B33D0053351D1544A536B04218B4315
:1033E0005363536BF4318B43A169C9000B4353639F
:1033F000236A002B00D193E04C4A51680C220A400A
:10340000082A00D18FE0022B4FD0484A1368484960
:103410000B401360FFF786FC0400444B1B689B01C4
:103420007AD5FFF77FFC001B0228F6D9032078E04D
:103430003E4AD3693F490B40D361C5E73B4B5A6BCA
:1034400004210A435A635A6B03390A435A63FFF74C
:1034500069FC0500354B5B6B9B0706D4FFF762FCEC
:10346000401B0228F6D903205BE030494B6BF82261
:103470009343A269D20013434B63B9E72B4B5A6BBA
:1034800004210A435A635A6B03398A435A63FFF78C
:1034900049FC0500254B5B6B9B07A9D5FFF742FC58
:1034A000401B0228F6D903203BE0204A136820493C
:1034B0000B401360FFF736FC05001C4B1B689B019B
:1034C00006D5FFF72FFC401B0228F6D9032028E081
:1034D000164BDA6A0F218A43E16A0A43DA625A68B4
:1034E00015490A40A16A606A01430A435A60196893
:1034F000802252040A431A60FFF714FC04000B4BAD
:103500001B689B0106D4FFF70DFC001B0228F6D9AF
:10351000032006E0002004E0002002E0012000E09B
:10352000002002B070BD0120FBE7C0460010024041
:10353000FFFFFFFEFFFFFFEFFFFFC2FF30B589B0C7
:1035400004AA174B180032C832C2110002680A6080
:103550006A46103313CB13C21B681360114B5A68B1
:103560000C231340082B19D1910C0733194004A8E0
:10357000445C0C49C96A0B406946C95CD30308D452
:1035800063011B1B9801C01AC0000419200209B076
:1035900030BD0548FCF7B8FD6043F8E70248F6E7A0
:1035A000804E00080010024000127A0070B505003D
:1035B0000C004D4B1A68012313408B420BD24A4931
:1035C0000B680122934323430B600B681A40A2420D
:1035D00001D0012070BD2B689B0706D5434A536874
:1035E000F0218B43A9680B4353602B68DB074BD555
:1035F0006B68012B20D0022B24D03C4A1268920722
:103600006FD53A494A680320824313434B60FFF762
:1036100089FB06006B68012B1AD0022B26D0334B96
:103620005B680C221A422FD0FFF77CFB801B304BCB
:103630009842F4D90320CDE72C4A12689203E0D4D3
:103640000120C7E7294A12689201DAD40120C1E7B4
:10365000264B5A680C231340042B15D0FFF762FB4E
:10366000801B234B9842F3D90320B3E71F4B5A68C2
:103670000C231340082B07D0FFF754FB801B1C4B77
:103680009842F3D90320A5E7174B1A68012313408A
:10369000A3420BD914490B680122934323430B60C7
:1036A0000B681A40A24201D0012093E72B685B0708
:1036B00006D50E4A53680F490B40E9680B43536027
:1036C000FFF73CFF094B5A6812090F2313400A4ABF
:1036D000D35CD840094B18600020FFF7F9FA0020AE
:1036E00078E7012076E7C046002002400010024043
:1036F00088130000FFF8FFFFD04F000800000020F3
:10370000014B18687047C0460000002010B5FFF755
:10371000F7FF044B5A68120A07231340024AD35C8E
:10372000D84010BD00100240E04F000830B5036AD9
:10373000012293430362036A426884697325AC43A0
:103740000D682C430225AB438D682B43114DA842D5
:1037500005D0114DA84202D0104DA84205D1082530
:10376000AB43CD682B430425AB430A4DA84205D09B
:10377000094DA84202D0094DA84205D1084D2A4062
:103780004D692A438D692A43426084614A684263D5
:10379000036230BD002C014000440140004801405C
:1037A000FFFCFFFF70B5036A184A13400362036A07
:1037B0004268C4697325AC430E682643144C234009
:1037C0008C6824022343134CA04216D0114CA04213
:1037D00005D0114CA04202D0104CA04207D1104C91
:1037E00014404A69120122438C6925012A43426030
:1037F000C6614A68C263036270BD0A4C1C40CB6854
:103800001B022343084C2340E0E7C046FFFEFFFFB6
:10381000FFFDFFFF002C0140004401400048014033
:10382000FFCFFFFFFFF7FFFFFFFBFFFF30B5036A8E
:10383000114A13400362026A4368C4690F4D2C4069
:103840000D682D022C430E4D15408A6812032A4341
:103850000C4DA84205D00C4DA84202D00B4DA842F9
:1038600004D10B4D2B404D69AD012B434360C46126
:103870004B680364026230BDFFEFFFFFFF8CFFFF68
:10388000FFDFFFFF002C01400044014000480140E1
:10389000FFBFFFFF10B53D22022383540468236855
:1038A00001210B4323608154002010BD03681A4A94
:1038B000904202D0194A904203D1702293434A6841
:1038C0001343154A90420BD0144A904208D0144A30
:1038D000904205D0134A904202D0134A904203D13D
:1038E000124A1340CA681343802293434A69134320
:1038F00003608B68C3620B688362074B984205D0F4
:10390000084B984202D0084B984201D10B690363DF
:10391000012343617047C046002C01400004004071
:10392000002000400044014000480140FFFCFFFF30
:1039300070B5041E14D03D23C35C002B0AD03D2576
:1039400002236355211D2068FFF7B0FF0123635553
:10395000002070BD3C330022C254FEF709FBEEE7A5
:103960000120F6E770B5036A102293430362036AED
:1039700042688469164D2C400D682D022543202491
:10398000A3438C6824012343124CA04216D0114C4F
:10399000A04205D0104CA04202D0104CA04207D14A
:1039A0000F4C14404A69920022438C69A6003243AE
:1039B000426085614A688263036270BD8024A343CC
:1039C0001C00CB681B0123434024A343DFE7C04610
:1039D000FF8CFFFF002C01400044014000480140E3
:1039E000FFF3FFFF70B504000D003C23C35C012B07
:1039F00069D03C230121C15401330131C154042A4F
:103A000037D019D9082A4AD00C2A2AD129000068AF
:103A1000FFF70CFF2268D16980231B010B43D361A0
:103A20002268D36929490B40D3612168CB692A698F
:103A300012021343CB6114E0002A12D1290000685E
:103A4000FFF774FE2268936908210B439361226893
:103A5000936904398B4393612268936929690B4305
:103A600093613D230122E254013B0022E2540020F5
:103A700070BD29000068FFF775FF226891698023F7
:103A80001B010B4393612268936910490B409361BA
:103A900021688B692A69120213438B61E1E72900CF
:103AA0000068FFF77FFE2268D36908210B43D361CA
:103AB0002268D36904398B43D3612268D3692969A9
:103AC0000B43D361CDE70220D2E7C046FFFBFFFFE7
:103AD00010B501248C40036AA3430362036A8A4041
:103AE0001A43026210BD000010B5040001220068F4
:103AF000FFF7EEFF23680A4A934205D0094A934232
:103B000002D0094A934204D1596C802212020A431E
:103B10005A642268136801210B431360002010BD12
:103B2000002C0140004401400048014010B5212311
:103B3000C35C022B03D004238363012010BD026801
:103B400013680E218B43136001680A6801239A43AE
:103B50000A60C26B1900046CA14051602122835499
:103B60001F330022C254436B002B02D09847002021
:103B7000E4E70020E2E7F0B53C23C35C012B1ED054
:103B80003C22012585543D240223035506687368B1
:103B90007027BB437360066873680F683B437360AC
:103BA0000668B3688027BB43B3600668B36849689A
:103BB0000B43B3600555002383540020F0BD022061
:103BC000FCE700000268136806490B4013600268B6
:103BD00093682331FF318B4393606A232022C254C0
:103BE0007047C046DFFEFFFF70477047704710B553
:103BF000406A00235A228352083A8352FFF7F6FFA5
:103C000010BD000010B504008368026913434269C7
:103C10001343C269134301680A685C4802401343B6
:103C20000B60226853685A490B40E1680B435360AC
:103C3000A269236A1A4321688B68564803401343DC
:103C40008B60554B1A6B03231340012B26D0002B9E
:103C500005D0022B24D0032B24D0102300E0002316
:103C600080221202E16991421ED0022B00D16FE046
:103C70005ED9042B00D179E0082B00D084E0636882
:103C8000580880231B029C4660446168FCF73CFA9C
:103C900023680004000CD86000202EE00423DFE736
:103CA0000823DDE70223DBE7022B27D00FD9042B03
:103CB0002FD0082B39D16368580880235B029C46BB
:103CC00060446168FCF720FA83B200200CE0002B0E
:103CD0002BD1FFF71BFD400063685B08C0186168CB
:103CE000FCF712FA83B200200F22190091435B10F7
:103CF000083A13400B432268D36010BD636858082C
:103D0000264B9C4660446168FCF7FEF983B20020B4
:103D1000EAE7FFF713FC400063685B08C0186168BE
:103D2000FCF7F2F983B20020DEE701200023DBE795
:103D3000002B29D1FFF7EAFC63685B08C0186168B3
:103D4000FCF7E2F923680004000CD8600020D4E7F7
:103D500063685808124B9C4660446168FCF7D4F9CC
:103D600023680004000CD8600020C6E7FFF7E6FBDC
:103D700063685B08C0186168FCF7C6F92368000433
:103D8000000CD8600020B8E70120B6E7F369FFFF18
:103D9000FFCFFFFFFFF4FFFF001002400024F400FC
:103DA00000127A00436ADB0706D5026853682C4983
:103DB0000B40816A0B435360436A9B0706D5026838
:103DC000536828490B40C16A0B435360436A5B0741
:103DD00006D50268536824490B40016B0B435360BE
:103DE000436A1B0706D50268536820490B40416BA4
:103DF0000B435360436ADB0606D5026893681C498F
:103E00000B40816B0B439360436A9B0606D50268A7
:103E1000936818490B40C16B0B439360436A5B0680
:103E20000BD50268536814490B40016C0B43536077
:103E300080235B03026C9A420AD0436A1B0606D5B4
:103E4000026853680D490B40816C0B435360704707
:103E5000026853680A490B40416C0B435360ECE71E
:103E6000FFFFFDFFFFFFFEFFFFFFFBFFFF7FFFFFE9
:103E7000FFEFFFFFFFDFFFFFFFFFEFFFFFFFF7FF9A
:103E8000FFFF9FFF0023C3662022692142540131B6
:103E900042544832835400207047000010B5041E7D
:103EA00030D06923C35C002B22D069232422E25442
:103EB0002268136801218B4313602000FFF7A2FEE4
:103EC000012814D0636A002B18D1226853680E4968
:103ED0000B4053602268936808218B4393602268EB
:103EE000136807390B4313602000FFF7CBFF10BDA9
:103EF00068330022C254FDF7ADFFD6E72000FFF77C
:103F000051FFE2E70120F2E7FFF7FFFF6923C35CFF
:103F1000212B2FD13133C35A9BB2002B11D08023D8
:103F20005B0182689A4218D0C36C5A1CC2641B7829
:103F3000026813855222835A013B9BB283520020B0
:103F400019E00268136880218B43136002681368CC
:103F500040390B43136000200DE00369002BE3D1CF
:103F6000C36C1B88DB05DB0D02681385C36C023351
:103F7000C364DFE70220704710B502681368402170
:103F80008B43136069232022C254FFF72DFE0020CB
:103F900010BD000010B55C23C25A0E33C35C222B47
:103FA00032D103689B8C9BB28021490184688C428A
:103FB0000ED0D2B2416D4C1C446513400B705A2296
:103FC000835A013B9BB28352002B0BD0002021E08F
:103FD00001690029EDD11340426D1380436D023316
:103FE0004365ECE7026813680B490B4013600268F5
:103FF00093682331FF318B4393606A232022C2549C
:10400000FFF7F3FD002005E00268936908210B43E8
:104010009361022010BDC046DFFEFFFF70B50400B3
:104020000168CB6908680F221A4003D19D0601D5AB
:1040300085065BD48D68002A6ED001222A4003D108
:1040400090256D00284267D0DD0706D5C50504D54B
:1040500001250D62E16E2943E166990708D5002A22
:1040600006D0216802250D62E16E02352943E16622
:10407000590708D5002A06D0216804250D62E16E93
:10408000023D2943E166190709D5810601D4002ABA
:1040900005D0226808211162E26E0A43E266E26EF0
:1040A000002A41D09B0601D5830623D4E36E1B076B
:1040B00003D423689B685B0628D52000FFF782FDA8
:1040C00023689A6852061DD59A6840218A439A60EF
:1040D000636E002B12D0194A5A63606EFFF726FDFB
:1040E000002821D0606E436B98471DE02000FFF749
:1040F00051FF19E02000FFF74DFFD7E72000FFF741
:1041000075FD11E02000FFF771FD0DE02000FFF7C5
:104110006DFD0023E36607E01A0601D5020604D40C
:104120005B0601D5430604D470BD2000FFF7EEFE08
:10413000FAE72000FFF720FFF6E7C046EF3B000854
:1041400070B582B004000368DB0335D53C4BDB69F6
:10415000DB0048D43A4AD169802040050143D1614F
:10416000D36903400193019B0125364B1B68DB0596
:104170003BD5334B1B6AC0229200134013D06168B9
:104180000A409A420FD02E4B186A2F4A02401E6AEC
:104190008021490231431962196A2C4E314019625B
:1041A0001A62C30735D4264A136A27490B4061684F
:1041B0000B431362012D3BD02368DB0706D5204A51
:1041C000136B03218B43A1680B43136323689B0686
:1041D00033D51B4A136B10218B43E1680B431363E8
:1041E000002002B070BD0025BFE7164A1168802389
:1041F0005B000B431360FEF795FD0600114B1B6837
:10420000DB05B6D4FEF78EFD801B6428F6D90320AB
:10421000E7E7FEF787FD0600094B1B6A9B07C2D440
:10422000FEF780FD801B0A4B9842F5D90320D8E7A2
:10423000D36908490B40D361BEE70020D1E7C046EF
:104240000010024000700040FFFCFFFFFFFFFEFF78
:1042500088130000FFFFFFEFF0B5C64600B582B03F
:10426000002338E0032600E00026AE4035003D4341
:104270000234A400554EA551554C25684246D443FE
:104280002E0026404A68D20302D5424615432E002E
:104290004F4D2E606D682E0026404A68920302D56D
:1042A000424615432E004A4D6E60AD682E002640F2
:1042B0004A68D20202D5424615432E00444DAE60F4
:1042C000ED682C404A68920202D542462A43140007
:1042D0003F4AD46001330A681400DC4071D00125E4
:1042E0009D402A409046F5D04C68022C01D0122CFB
:1042F0000ED1DC080834A400275807261E40B6005B
:104300000F22B24097430A69B24016003E4326503E
:1043100002685F0003242600BE40F6433240944604
:104320004A681440BC406246144304604C68621EF4
:10433000012A03D9112C01D0122C10D184683440E9
:10434000A446CC68BC406246144384604468AC43D5
:104350004A681209012515409D4025434560C468FF
:1043600026408C68BC403443C4604A68D200B1D552
:10437000184DAE6901242643AE61AD692C4001940D
:10438000019C9C08A51CAD00104EAF5903251D4093
:10439000AD000F26AE40B7439026F605B04200D1DF
:1043A00062E70D4EB04208D00C4EB04207D00C4E22
:1043B000B04200D156E7052657E7012655E7022609
:1043C00053E702B004BC9046F0BDC0460000014077
:1043D00000040140001002400004004800080048AA
:1043E000000C004803690B4201D1002070470120F6
:1043F000FCE7002A01D1816270478161FCE700007F
:104400000D4885460D480E490E4A002302E0D45857
:10441000C4500433C4188C42F9D30B4A0B4C00230C
:1044200001E013600432A242FBD3FDF76DFF00F000
:1044300011F8FDF7B5FEFEE7001000200000002097
:10444000D801002074500008D8010020500300203B
:10445000FEE7000070B500260C4D0D4C641BA41047
:10446000A64209D1002600F0FFFC0A4D0A4C641B4D
:10447000A410A64205D170BDB300EB589847013691
:10448000EEE7B300EB5898470136F2E76C500008AE
:104490006C5000086C50000870500008030012189F
:1044A000934200D1704719700133F9E770B50500E8
:1044B0000E00002804D08369002B01D100F024FAFB
:1044C000AB69AC68002B02D1280000F01DFA244B28
:1044D0009C420FD16C68A3891B0702D52369002B6E
:1044E0001FD12100280000F0A1F8002819D00120D8
:1044F000404270BD1B4B9C4201D1AC68EBE71A4BAC
:104500009C42E8D1EC68E6E70136A360002B04DAB0
:10451000A2699A4216DC0A2914D023685A1C226028
:104520001970A3683178013B0029EDD1A360002BFD
:104530000FDA22000A31280000F022F8431CD6D0FE
:104540000A20D6E72200280000F01AF8431CE8D120
:10455000CDE70A2023685A1C22601870C9E7C046BC
:104560002C5000084C5000080C50000810B5034BAC
:1045700001001868FFF79AFF10BDC04674010020C3
:10458000F8B505000E001400002804D08369002B44
:1045900001D100F0B9F9224B9C422DD16C68A3697E
:1045A000A360A3891B0731D52369002B2ED0236874
:1045B0002269F7B2981A6369F6B2834205DC2100DA
:1045C000280000F033F9002826D1A3680130013B10
:1045D000A36023685A1C22601F706369834204D061
:1045E000A389DB071AD50A2E18D12100280000F074
:1045F0001DF9002812D00FE00A4B9C4201D1AC6893
:10460000CDE7094B9C42CAD1EC68C8E721002800DD
:1046100000F00CF80028CAD0012676423000F8BD20
:104620002C5000084C5000080C500008364B70B558
:104630001D6806000C00002D05D0AB69002B02D1CF
:10464000280000F061F9314B9C420FD16C680C23BB
:10465000E25E93B219072DD4D90611D409230120A3
:10466000336037331343A381404270BD284B9C42D3
:1046700001D1AC68EBE7274B9C42E8D1EC68E6E758
:104680005B0713D5616B002908D02300443399429E
:1046900002D0300000F038FA002363632422A3899B
:1046A0009343A38100236360236923600823A289C5
:1046B0001343A3812369002B0BD1A0218022A3895E
:1046C000890092000B40934203D02100300000F09B
:1046D000D7F90123A289134011D00023A360636995
:1046E0005B42A361002023698342BED10C23E25EBA
:1046F0001306BAD540231343A3810138B5E79207C7
:1047000000D46369A360EDE7740100202C50000819
:104710004C5000080C500008F7B58A8905000C00C1
:10472000130760D44B68002B04DC0B6C002B01DCFE
:104730000020FEBDE76A002FFAD000232E682B6010
:1047400080235B01216A1A4034D0606DA3895B0726
:1047500006D56368C01A636B002B01D0236CC01AA6
:104760000200216A00232800E76AB847A189431C98
:1047700006D12B681D2B30D82B4ADA40D3072CD515
:104780000023636023692360CB0405D5431C02D159
:104790002B68002B00D16065616B2E600029C7D0AB
:1047A00023004433994202D0280000F0ADF90020E4
:1047B0006063BEE701232800B847431CC6D12B68BD
:1047C000002BC3D01D2B01D0162B01D12E60AFE7DB
:1047D0004023A2891343A381ABE740230B4301206D
:1047E000A3814042A5E70F69002FA1D00B680F609D
:1047F000DB1B01930023920700D14B69A360019B4F
:10480000002B00DC94E7019B3A00216A2800A66A8D
:10481000B047002803DC4023A2891343DFE7019B54
:104820003F181B1A0193EAE7010040200B6970B59D
:1048300005000C00002B01D1002070BD002804D021
:104840008369002B01D100F05FF80B4B9C4209D12A
:104850006C680C22A35E002BEED021002800FFF72D
:104860005BFFEAE7054B9C4201D1AC68F1E7044BE2
:104870009C42EED1EC68ECE72C5000084C5000084C
:104880000C500008002310B50400036043608360EF
:1048900081814366C28103614361836119000822FB
:1048A0005C30FFF7FBFD054B24626362044BA3629F
:1048B000044BE362044B236310BDC0467D4C0008EB
:1048C000A54C0008DD4C0008094D000810B5024950
:1048D00000F08CF810BDC0462D48000870B5682562
:1048E0004A1E55430E002900743100F057F9041E8A
:1048F00008D000212A00016046600C30A0606832B8
:10490000FFF7CCFD200070BD836913B50400002BB8
:1049100028D18364C3640365134B144A1B68826205
:104920000193984201D101238361200000F020F817
:104930006060200000F01CF8A060200000F018F873
:104940000022E06004216068FFF79CFF012209213A
:10495000A068FFF797FF02221221E068FFF792FF9D
:104960000123A36113BDC04608500008CD480008CC
:10497000F8B51C4B07001E68B369002B02D130004C
:10498000FFF7C2FF4836B4687368013B04D533684B
:10499000002B07D03668F6E70C22A55E002D0DD05F
:1049A0006834F2E704213800FFF798FF30600028F0
:1049B000F0D10C2304003B602000F8BD20000A4B1E
:1049C000656625606560A560E36025616561A56138
:1049D000082229005C30FFF761FD6563A563A564CB
:1049E000E564E9E7085000080100FFFFF7B504009F
:1049F0000700002601914834002C01D13000FEBD93
:104A00006368A5680093009B013B009301D524686F
:104A1000F2E7AB89012B08D90E22AB5E013304D03B
:104A200029003800019B984706436835EBE70000F2
:104A300070B50E001D000E23C95E96B0140000294B
:104A400007DA00232B60B3891B0611D48023DB0017
:104A50000FE06A4600F084F90028F2DBF022019BA7
:104A600012021340054A9B185A4253412B60EDE74E
:104A700040230020236016B070BDC04600E0FFFF59
:104A8000F7B502268B8905000C00334206D02300BF
:104A900047332360236101236361F7BD01AB6A469D
:104AA000FFF7C6FF00990700280000F077F80028FC
:104AB00008D10C22A35E9A05EFD4032293431E4330
:104AC000A681E4E70F4BAB628023A28920601343E9
:104AD000A381009B20616361019B002B0DD00E23FD
:104AE000E15E280000F04EF9002806D00322A389D9
:104AF00093431A0001231343A381A0893843A08163
:104B0000CBE7C046CD48000870B50500002910D09D
:104B10000C1F2368002B00DAE418280000F058F975
:104B20001D4A1368002B05D163601460280000F053
:104B300050F970BDA34209D9216860188342F3D1AE
:104B400018685B6841182160EEE713005A68002A74
:104B500001D0A242F9D919685818A0420BD1206897
:104B60000918581819608242E0D11068526841183B
:104B700019605A60DAE7A04202D90C232B60D5E70E
:104B800021686018824203D1106852684118216080
:104B900062605C60CAE7C04618020020032370B55B
:104BA000CD1C9D43083506000C2D1ED20C25A942B4
:104BB0001DD8300000F00CF9254A146821000029A6
:104BC00019D1244C2368002B03D1300000F044F8A5
:104BD00020602900300000F03FF8431C2BD10C234B
:104BE0003000336000F0F5F803E0002DDFDA0C232D
:104BF0003360002070BD0B685B1B19D40B2B03D9ED
:104C00000B60CC18256003E04B688C420DD113601B
:104C1000300000F0DEF8200007220B30231D904307
:104C2000C31AE7D05A42E250E4E763600C00EFE7B2
:104C30000C004968C3E70323C41C9C43A042E1D095
:104C4000211A300000F008F8431CDBD1C7E7C0464A
:104C5000180200201C020020002370B5064C05003D
:104C60000800236000F0F2F8431C03D12368002BF6
:104C700000D02B6070BDC0464C03002070B50C0006
:104C80000E25495F00F0A6F8002803DB636D1B18B2
:104C9000636570BDA389024A1340A381F9E7C0464A
:104CA000FFEFFFFFF8B51F008B8905000C00160011
:104CB000DB0505D50E23C95E0022022300F074F83F
:104CC000A389054A28001340A38132000E23E15E28
:104CD0003B0000F01FF8F8BDFFEFFFFF70B50C00C0
:104CE0000E25495F00F060F8A389421C03D1054AF4
:104CF0001340A38170BD802252011343A3816065DC
:104D0000F8E7C046FFEFFFFF10B50E23C95E00F0C5
:104D100015F810BD70B50500080011000022064C02
:104D200022601A00FDF750F8431C03D12368002BC2
:104D300000D02B6070BDC0464C030020002370B52E
:104D4000064C05000800236000F058F8431C03D10E
:104D50002368002B00D02B6070BDC0464C030020A0
:104D6000002370B5064C050008001100236000F018
:104D70004DF8431C03D12368002B00D02B6070BD7D
:104D80004C030020002370B5064C0500080023608A
:104D900000F044F8431C03D12368002B00D02B60A3
:104DA00070BDC0464C03002070B50500080011001E
:104DB0000022064C22601A0000F038F8431C03D190
:104DC0002368002B00D02B6070BDC0464C03002030
:104DD0007047704770B50500080011000022064CAE
:104DE00022601A0000F02AF8431C03D12368002B2C
:104DF00000D02B6070BDC0464C030020582201201B
:104E0000014B40421A6070474C0300205822012099
:104E1000014B40421A6070474C0300205822024B5D
:104E200000201A607047C0464C0300205822012021
:104E3000014B40421A6070474C0300205822012069
:104E4000014B40421A6070474C030020044A13682B
:104E5000002B00D1034B1818106018007047C04693
:104E60002002002050030020F8B5C046F8BC08BC62
:104E70009E467047F8B5C046F8BC08BC9E467047D1
:104E800002030405060708090A0B0C0D0E0F10108B
:104E90000102030405060708090A0B0C0D0E0F108A
:104EA000020700083E060008620600080006000827
:104EB00062060008DE060008620600080006000818
:104EC0003E0600083E060008DE0600080006000850
:104ED000340700083407000834070008EA06000811
:104EE0003E0600083E06000862060008FE050008AF
:104EF00062060008DE06000862060008FE050008DB
:104F00003E0600083E060008DE060008FE05000812
:104F1000340700083407000834070008E8060008D2
:104F2000A00800084A0800084A0800087809000894
:104F300046080008460800086E09000878090008BD
:104F4000460800086E0900084608000878090008AD
:104F50007C0900087C0900087C0900088409000815
:104F6000D8160008DA150008DA150008F818000845
:104F7000D4150008D4150008E0180008F818000837
:104F8000D4150008E0180008D4150008F818000827
:104F9000EE180008EE180008EE180008FC180008CB
:104FA0005372632F75736172742E63005372632F93
:104FB0006164632E630000005372632F74696D2E69
:104FC000630000005372632F6D61696E2E630000F1
:104FD00000000000000000000102030406070809A9
:104FE0000000000001020304FA2400081425000850
:104FF0002E2500086625000880250008C825000821
:1050000053340D0053350D007801002000000000DE
:105010000000000000000000000000000000000090
:105020000000000000000000000000000000000080
:105030000000000000000000000000000000000070
:105040000000000000000000000000000000000060
:105050000000000000000000000000000000000050
:0C50600000000000000000000000000044
:04506C00E90000084F
:04507000C100000873
:1050740000127A00C001F901A401B0019901920162
:105084008201F80180019001C002F902A402B00279
:10509400990292028202F80280029002C004F9048A
:1050A400A404B004990492048204F80480049004D3
:1050B400C008F908A408B008990892088208F808FA
:1050C40080089008C010F910A410B0109910921024
:1050D4008210F81080109010C020F920A420B02075
:1050E400992092208220F82080209020C040F9400E
:1050F400A440B040994092408240F84080409040A3
:10510400C080F980A480B080998092808280F880E9
:10511400808090800100C602DB0302042A04530449
:105124007C04A604D104FC04280555058205AF05BA
:10513400DD050B06390668069706C606F50624073C
:1051440053078307B207E1070F083E086C089A0863
:10515400C808F50822094E097A09A509D009FA09EF
:10516400240A4D0A750A9C0AC30AEA0A0F0B340B77
:10517400580B7B0B9E0BC00BE10B020C210C400C5B
:105184005E0C7C0C990CB50CD00CEB0C050D1E0DB3
:10519400370D4E0D660D7C0D920DA80DBD0DD10D74
:1051A400E40DF80D0A0E1C0E2E0E3F0E4F0E5F0E70
:1051B4006E0E7D0E8C0E9A0EA80EB50EC20ECF0E7C
:1051C400DB0EE70EF20EFD0E080F120F1C0F260F5A
:1051D400300F390F420F4A0F530F5B0F630F6B0FE2
:1051E400720F000078010020000000002C5000081D
:1051F4004C5000080C5000080000000000000000A3
:10520400000000000000000000000000000000009A
:10521400000000000000000000000000000000008A
:10522400000000000000000000000000000000007A
:10523400000000000000000000000000000000006A
:08524400000000000000000062
:0400000508004401AA
:00000001FF
